:02000004F90001
:100000009721000093810130176100001301817274
:10001000171500001305856B971500009385056B78
:100020001386418263FCC5008322050023A055008E
:100030001305450093854500E3E8C5FE138541821D
:10004000938581426378B5002320050013054500A0
:10005000E36CB5FEEF000001EF0040246F000000EC
:0400600067800000B5
:10006400130101FF23248100232021011714000020
:1000740013048465171900001309096533098940BD
:10008400232611002322910013592940630E0900ED
:100094009304000083270400938414001304440091
:1000A400E7800700E31899FE171400001304C461E5
:1000B400171900001309496133098940135929406C
:1000C400630E090093040000832704009384140042
:1000D40013044400E7800700E31899FE8320C1005D
:1000E4000324810083244100032901001301010139
:1000F400678000009307300063F8C702B367B50058
:1001040093F7370093063000639207060327050030
:1001140083A70500631CF7041306C6FF13054500F7
:1001240093854500E3E4C6FE9307F6FF630C0602DD
:100134000347050083C60500631ED7021387170013
:10014400930715003305E5006F00400103C707005E
:1001540083C6050093871700631ED7009385150097
:10016400E396A7FE13050000678000009307F6FFDF
:100174006FF01FFC3305D74067800000B3C7A500AC
:1001840093F73700B308C50063920706930730005E
:1001940063FEC704937735001307050063980706C9
:1001A40013F6C8FF930706FE636CF708637CC70267
:1001B400938605009307070003A80600938747006A
:1001C4009386460023AE07FFE3E8C7FE9307F6FFD6
:1001D400B387E74093F7C7FF938747003307F700D8
:1001E400B385F500636817016780000013070500F5
:1001F400E37C15FF83C705001307170093851500DB
:10020400A30FF7FEE36817FF6780000083C60500AD
:100214001307170093773700A30FD7FE93851500B4
:10022400E38007F883C605001307170093773700A8
:10023400A30FD7FE93851500E39A07FC6FF05FF6D2
:1002440083A6050083A2450083AF850003AFC500E4
:1002540083AE050103AE450103A3850103A8C501CF
:10026400938545022320D70083A6C5FF2322570088
:100274002324F7012326E7012328D701232AC701D2
:10028400232C6700232E070113074702232ED7FED2
:10029400E368F7FA6FF09FF1130101FC232E1102BA
:1002A400232C8102232A91022328210323263103AC
:1002B400232441032322510323206103232E7101AC
:1002C400232C8101232A91012328A1012326B10192
:1002D400B71700F81307500323A4E70013077000AF
:1002E40023A6E700B7D700F81307300093042000D3
:1002F40023A4E700371400F923A2970013054470E0
:10030400EF00101B371500F913058572EF00501A22
:10031400371500F91305C574EF009019371500F966
:1003240013050577EF00D01813054470EF0050183B
:10033400B7875600372710F89387A7892328F70033
:10034400B717000093874723371500F9232AF700CE
:1003540013054579EF00D015371500F91305857A93
:10036400EF001008371410F837C5000023240400E8
:1003740013050535EF00501193071000379504005D
:100384002324F4001305053EEF001010372500F96F
:100394001305C595EF00D01113052000EF00C077B9
:1003A4009309050013053000EF00007713090500D9
:1003B400371500F91305857BEF00900213850900BA
:1003C400EF005005371500F91305C57BEF00500108
:1003D40013050900EF001004B72900F9138589AA51
:1003E400EF00100D371500F91305057CEF00407F71
:1003F400B787080D938717C2232294002320F400A3
:10040400EF00C0641305803EEF00100813051001CF
:10041400EF00807013658510B7470000938717427B
:10042400131505013365F500232294002320A4004D
:10043400EF00C0611305803EEF00100513051001A5
:1004440037890000EF00406D130919C2232294007C
:1004540023202401130A0500EF00405F371500F93B
:100464001305057DEF00C07713050A00EF00807ABD
:10047400138589AAEF00D003B787430A2322940087
:10048400938717C22320F400EF00405CB7771180F4
:1004940023229400938717C22320F400EF00005B0B
:1004A400B7773F5793871702232294002320F40041
:1004B400EF00C0592322940023202401EF000059A7
:1004C400371500F91305857DEF00807EB7270000FE
:1004D40023229400938717422320F400EF0000574F
:1004E400B717E10123229400938717022320F40015
:1004F400EF00C055B7070012232294009387170218
:100504002320F4003789010013840900EF0000540C
:100514009304C0031309096A93094002372A00F9B6
:10052400B70A10F813050900EF0000761305100050
:10053400EF00805E13051000EF00005E13754502A6
:100544006304352D1305CAA9EF00806983A74A0007
:1005540093F71700E38C07FE9384F4FFE39404FC01
:1005640013090000130584AAEF008074130510001A
:10057400EF00805A13051000EF00005A371A10F8E4
:10058400930A2000B787430A938717C223225A018C
:100594002320FA0093040500EF00404B1305803E2E
:1005A400EF00806E1305A001EF000057B78700002D
:1005B400938717C223225A012320FA0093090500C6
:1005C400EF00C048371500F91305857FEF0040613F
:1005D40013850400EF00006493F74400639A072234
:1005E400371500F91305456EEF00805F13F504021B
:1005F40063160522371500F91305456FEF00405EB9
:10060400130584AAEF00C06A372500F91305058095
:10061400EF00005D1385090093D44900EF00805F6B
:1006240093F43400930720006390F420372500F9F5
:1006340013058580EF00C05A13F589006316052061
:10064400371500F913050570EF008059130584AAC6
:10065400EF0000666300092093071000639CF41EFA
:10066400372500F913050582EF008064372500F96A
:1006740013054587EF00C06383D70181138481820A
:10068400138D070083A7018113090000130A046076
:10069400938D0700B72710F803A7470013772700A7
:1006A4006302071483ACC7009306C05D939B0C01DF
:1006B40093DB0B0113872BFF131707011357070154
:1006C40063E6E63413873B0013572740B73610F828
:1006D400938C0B0013172700930700009386068062
:1006E4006310F718B72710F81307200023A0E700BA
:1006F4008347C4600347D46093978700B3E7E70058
:1007040037170000130767806398E7169307900272
:1007140063FA770D0347F460930710006314F70C32
:100724008346046193078000639EF60A834614613E
:100734008347E460B3E7D70083464461B3E7D70057
:100744006392070A83475461639EE70813064000D7
:100754009385018113056462EFF0DF996314050842
:10076400930A64611306600093850A00130504006C
:10077400EFF0DFA013066000938541811305640048
:10078400EFF0DF9FB7070001938787602326F4000B
:10079400B7070604938787002328F40093070020F3
:1007A400231AF40013066000938541811305640144
:1007B400EFF0DF9C13066000232EB40193850A003A
:1007C40013050402EFF09F9B8357C4611305A00235
:1007D4002313F4028357E4612314F402EF00002C82
:1007E400EF000025B717030013091900938707D4F6
:1007F400B377F90263920722B7D700F813073000E2
:1008040023A2E7006FF01FE9130910006FF09FD5D2
:10081400371500F91305C56D6FF01FDD371500F9A5
:100824001305C56E6FF09FDD930710006398F40005
:10083400372500F9130505816FF0DFDF372500F94F
:10084400130585816FF01FDF371500F91305C56F98
:100854006FF09FDF372500F9130505846FF0DFE0A3
:100864003386D700832506003306FA0093874700B2
:100874002320B6006FF0DFE693870780E39407F642
:1008840093071002E3F077F7034BE460930740000B
:1008940013574B00E318F7F4137BFB00131B2B00D7
:1008A40093073001E3F067F59307DB00E3DC97F38C
:1008B40013064000938501811305E461EFF09F83E3
:1008C400130C0500E31005F203477461930710004D
:1008D400E31AF7F0930AEB0093877A00E3D497F1D5
:1008E400B307540183C6076013078000E39CE6EE58
:1008F40083C71760E39807EE13860C0093050A007C
:1009040013050400EFF09F871306600093056460ED
:1009140013050400EFF09F86130660009385418160
:1009240013056400EFF09F859387018183D7270027
:10093400231DA401231C0400231EF4008357A46177
:1009440093060400231FF4008357C4612310F402A8
:100954009307000003C7E60003C6F600130C2C003F
:10096400131787003367C700B387E7009386260011
:10097400E3426CFF370601001306F6FF13D70701A5
:1009840063100708B3C7C70013978700939707013D
:1009940093D7070193D78700B367F700231CF400AC
:1009A40093862A00B307540123800700938A3A00F0
:1009B400B307D40003C70700B307540183C7070074
:1009C40013178700B70501003367F700B717000056
:1009D40093870780B307F70063E6B700B3F7C70050
:1009E40093871700B306D40013D787002380E6004B
:1009F400B30A54012380FA0013850B006FF01FDE45
:100A0400B3F7C700B387E7006FF05FF71307200061
:100A140023A0E7006FF01FDD378701001307076A83
:100A2400E39AE7C6B7D700F8130720006FF05FDD3D
:100A340083A7418293B7170023A2F18293872700EB
:100A440037D700F82322F700678000009307007D62
:100A5400B71610F803A7460013771700631A0700A8
:100A64009387F7FFE39807FE1305000067800000F3
:100A7400B7A7070093870712B71610F803A7460015
:100A840013772700631807009387F7FFE39807FE9F
:100A94006FF09FFD13051000678000001307A05E30
:100AA400930705006374A7009307A05E939607015C
:100AB40093D606011307C00363F4E6009307C0034B
:100AC4009397070193D70701B72610F803A74600A9
:100AD40013771700E31C07FE9386370093D626404E
:100AE400372610F89396260093080608938581828A
:100AF4003388E5000328080033051701130747006E
:100B040023200501E316D7FE2324F60093071000E3
:100B14002320F60067800000130101FF23248100D5
:100B240023261100371410F8930720001315A5008D
:100B34002322F400136535022320A400EFF01FF1F3
:100B4400630E050003254400135505018320C100ED
:100B540003248100130101016780000037050100AF
:100B64001305F5FF6FF09FFE370710F88327470042
:100B740093F72700639C0702B7670000130101FF86
:100B84002324A7009387871A2326F1008327C10013
:100B94001387F7FF2326E10063980700130510006D
:100BA40013010101678000006FF05FFE1305000070
:100BB40067800000130101FF232481002326110014
:100BC4001304050013050400EFF01FFAE30C05FEFF
:100BD4008320C10003248100130101016780000008
:100BE400130101FF232481002326110013040500AF
:100BF40003450400631A05008320C1000324810017
:100C04001301010167800000EFF0DFFA1304140000
:100C14006FF01FFE130101FF23248100371400F934
:100C24001304846C9357C500B307F4002322910086
:100C34009304050003C5070023261100EFF0DFF23B
:100C440093D7840093F7F700B307F40003C50700B4
:100C5400EFF09FF193D7440093F7F700B307F40044
:100C640003C5070093F4F40033049400EFF0DFEFBE
:100C740003450400032481008320C1008324410030
:100C8400130101016FF05FEEB7C7B0F803A787FF48
:100C9400930720033305F5023305E50037C7B0F8A1
:100CA400832787FFB307F540E3DC07FE6780000076
:100CB400130101FF23261100EFF09FF21305D0006A
:100CC400EFF05FEF1305A000EFF0DFEE370710F849
:100CD4008327470093F71700E38C07FE8320C100A6
:100CE4001301010167800000130101FE232C810020
:100CF400232A910037840100B7D400F82328210166
:100D040023263101232E11009384440093093000DB
:100D14001304046A130920001305040023A03401FA
:100D2400EFF09FF61305040023A02401EFF0DFF594
:100D34006FF09FFE370710F88327470093F72700CB
:100D4400639C0702B7670000130101FF2324A70077
:100D54009387871A2326F1008327C1001387F7FF9F
:100D64002326E10063980700130510001301010115
:100D7400678000006FF05FFE1305000067800000CD
:100D8400130101FF2324810023261100130405000D
:100D940013050400EFF01FFAE30C05FE8320C100E5
:100DA400032481001301010167800000130101FF86
:100DB40023248100232611001304050003450400A5
:100DC400631A05008320C10003248100130101017B
:100DD40067800000EFF0DFFA130414006FF01FFEC9
:100DE400370710F88327470093F71700E38C07FEB3
:100DF400B7C7B0F803A787FFB78701009387076ACF
:100E04003307F700B7C6B0F883A786FFB307F740E8
:100E1400E3DC07FE67800000B7170000130101FE42
:100E2400938707B0232E11003365F500B7A700F8A8
:100E340023A0A7001307103023A2E700B7470F0031
:100E4400938707242326F10037A700F88327470058
:100E540093F70710639C07000325C7001375F50F6C
:100E64003335A0003305A0406F0080028327C10002
:100E74009387F7FF2326F100E39A07FC372500F94F
:100E84001305458BEFF09FF2EFF09FF51305F0FF8C
:100E94008320C1011301010267800000130101FED8
:100EA400B7A700F813070042232E110023A0E7047C
:100EB400B7871E00938707482326F10037A700F859
:100EC4008327070493F71700639807008320C10161
:100ED40013010102678000008327C1009387F7FF95
:100EE4002326F100E39E07FC372500F91305058C42
:100EF400EFF0DFEB8320C101130101026FF05FEE1D
:100F04006FF0DFEA130101FF23261100EFF01FEA5F
:100F14001305D000EFF0DFE61305A000EFF05FE665
:100F24008320C100130101016FF09FEB130101FF46
:100F340023248100372400F91304048A93574500BD
:100F4400B307F400232291009304050003C50700AE
:100F540093F4F4002326110033049400EFF09FDD92
:100F640003450400032481008320C100832441003D
:100F7400130101016FF01FDC130101FF2324810021
:100F8400130405001355850023261100EFF01FFA02
:100F94001375F40F032481008320C10013010101A0
:100FA4006FF0DFF8130101FF23248100130405000F
:100FB4001355050123261100EFF01FFC131504013E
:100FC400032481008320C10013550501130101018D
:100FD4006FF09FFA130101FFB7A700F823248100E3
:100FE400372500F903A407041305C58C2326110033
:100FF400EFF0DFDB13050400EFF0DFFA372500F92B
:101004001305858DEFF09FDA032481008320C1004E
:10101400130101016FF0DFDC130101FD23248102C0
:1010240023229102B7A700F81307002123261102F7
:1010340023A0E704B7871E0093870748130405001D
:1010440093840500232EF10037A700F883270704B3
:1010540093F707016390070613050002EFF0DFDB47
:1010640063060508372500F91305858FEFF01FD4B3
:1010740013050002EFF09FEB372500F91305858C6B
:10108400EFF0DFD2EFF0DFD5EFF05FE1B7C7B0F8F4
:1010940003A787FFB76700009387871A3307F70012
:1010A400B7C6B0F883A786FFB307F740E3DC07FEB3
:1010B4006F0040038327C1019387F7FF232EF100BC
:1010C400E39607F8372500F91305C58DEFF01FCE19
:1010D400EFF05FF0372500F91305858EEFF01FCD93
:1010E400EFF01FD01305F0FF6F00C0071355840005
:1010F400EFF09FD263080500372500F91305059129
:101104006FF01FF81375F40FEFF01FD1630805009B
:10111400372500F9130505926FF09FF61385040037
:10112400EFF09FCF63080500372500F913050593F9
:101134006FF01FF52326A100EFF05FD6B7C7B0F814
:1011440003A787FF0325C100B76700009387871AA9
:101154003307F700B7C6B0F883A786FFB307F74095
:10116400E3DC07FE8320C1020324810283244102BD
:101174001301010367800000372500F9130101FE04
:1011840013050594232E110023282101232C81000B
:10119400232A910023263101EFF05FC1EFF05FC4F1
:1011A400B7A700F81307300023A4E70237C70000ED
:1011B4001307F73423A6E7021307100323A8E70253
:1011C4001307900F23A8E70423AAE704372500F99F
:1011D40023ACE7041305C594EFF05FBD372900F98C
:1011E400130589AAEFF01FD2372500F913050596D8
:1011F400EFF0DFBBEFF0DFBEB7C7B0F803A787FFA0
:10120400B72726009387075A3307F700B7C6B0F805
:1012140083A786FFB307F740E3DC07FE372400F912
:101224001305C495EFF01FCE372500F91305C596B5
:10123400EFF05FCD372500F913058598EFF01FB760
:10124400EFF05FD9372500F91305C599EFF01FB604
:10125400B7A400F803A5440413552500137515001D
:10126400EFF0DFCC372500F91305859AEFF01FB4B2
:1012740003A544041355150013751500EFF01FCB97
:10128400130589AAEFF01FC8372500F91305459BFC
:10129400EFF0DFB1EFF0DFB49305000013050010A9
:1012A400EFF09FD7630C0504372500F91305859CDF
:1012B400EFF05FC5372500F91305059DEFF01FAF6B
:1012C400EFF05FD1130589AAEFF0DFC3372500F9EA
:1012D4001305459EEFF01FC3032481018320C10140
:1012E40083244101032901018329C100372500F921
:1012F400130585AF130101026FF0DFC0372500F934
:10130400130585A1EFF01FC0372500F91305C5A10A
:10131400B7390000EFF09FA9EFF09FAC93055000A0
:101324001385B90EEFF05FCF930405009305C00059
:101334001385B90EEFF05FCEB3E4A4009305F00F6C
:101344001385A900EFF05FCDB3E4A4009305F00F7B
:101354001385B900EFF05FCCB3E4A400930550000B
:101364001385B90EEFF05FCBB3E4A40093059000AE
:101374001385B90EEFF05FCA33E5A40063000534AA
:10138400372500F91305C5A2EFF0DFB7372500F9BB
:10139400130545A3EFF09FA1EFF09FA49305100060
:1013A40013054011EFF05FC7930500001305801289
:1013B400EFF09FC6930500001305E012EFF0DFC5C0
:1013C400930580011305A012EFF01FC593050000DB
:1013D4001305B012EFF05FC41305C495EFF09FB28C
:1013E400372500F9130585A4EFF05F9CEFF05F9FAC
:1013F4009305600013050016EFF01FC29305300E2D
:1014040013051016EFF05FC19305D00013052016E5
:10141400EFF09FC09305800713053016EFF0DFBF90
:101424001305C495EFF01FAE372500F91305C5A5C4
:10143400EFF0DF97EFF0DF9A9305500013054016A5
:10144400EFF09FBD9305800F13055016EFF0DFBC3E
:101454009305600013056016EFF01FBC9305700D33
:1014640013057016EFF05FBB93054000130580165B
:10147400EFF09FBA9305000613059016EFF0DFB95D
:10148400930550001305A016EFF01FB99305F00360
:101494001305B016EFF05FB8930500001305C016EE
:1014A400EFF09FB79305000E1305D016EFF0DFB6EB
:1014B400930500001305E016EFF01FB69305000E28
:1014C4001305F016EFF05FB51305C495EFF09FA375
:1014D400372500F9130585A7EFF05F8DEFF05F90D6
:1014E4009305100013050017EFF01FB393051000C8
:1014F40013051017EFF05FB29305000013054017B2
:10150400EFF09FB19305000013055017EFF0DFB023
:101514001305C495EFF01F9F372500F91305C5A8DF
:10152400EFF0DF88EFF0DF8B930580001305C01820
:10153400EFF09FAE930580001305D018EFF0DFADF8
:101544001305C495EFF01F9C372500F9130505AA70
:10155400EFF0DF85EFF0DF889305400013051030CE
:10156400EFF09FAB9305100013053030EFF0DFAAC6
:101574009305300013054030EFF01FAA93053000A7
:1015840013055030EFF05FA9930500001305603098
:10159400EFF09FA89305900313057030EFF0DFA7D9
:1015A4009305A00013059030EFF01FA793051000DA
:1015B4001305B030EFF05FA6930500001305C030AB
:1015C400EFF09FA5930520071305D030EFF0DFA4BB
:1015D4001305C495EFF01F93372500F91305C5AA29
:1015E400EFF0CFFCEFF0CFFF930540001305A015FB
:1015F400EFF09FA2930540051305B015EFF0DFA1AE
:101604009305900B13057015EFF01FA193052000AF
:1016140013058015EFF05FA09305000013059015E6
:10162400EFF09F9F1305C495EFF0DF8D9305000045
:1016340013052017EFF05F9E372500F9130505AC5D
:10164400EFF0CFF6EFF0CFF9B7C7B0F803A787FFF5
:10165400B7A70700938707123307F700B7C6B0F898
:1016640083A786FFB307F740E3DC07FE930510006A
:1016740013050010EFF05F9A1305C495EFF09F88EF
:10168400372500F9130545ADEFF04FF2EFF04FF5B4
:101694009305000013050060EFF01F989305000008
:1016A40013051060EFF05F97130589AAEFF09F858B
:1016B400372500F9130585AE6FF0DFC11305C49516
:0416C4006FF09FCC58
:1016C8003031323334353637383941424344454670
:1016D80000000000204C494E4B000000206E6F4C6B
:1016E800494E4B0020414E5F4F4B0000206E6F5F0C
:1016F800414E000020464400204844003D3D3D3D09
:101708003D3D3D3D3D3D3D3D3D3D3D3D3D3D3D3D01
:101718003D3D3D3D3D3D3D3D3D3D3D3D00000000E5
:101728003D205431323046333234203130304D2070
:1017380045746865726E6574202B2050696E673D2C
:10174800000000003D2049503A20203139322E3126
:1017580036382E312E353020202020202020202001
:101768002020203D000000003D204D41433A20301C
:10177800303A31323A33343A35363A37383A3941F1
:10178800202020202020203D000000003D50485906
:1017980020494E495420283130304D293D00000061
:1017A800504859204857205253542E2E2E000000DE
:1017B80049443D002F00000052474D494920444C00
:1017C800592E2E2E000000005245473D0000000013
:1017D800436F6E6669677572696E67203130304D88
:1017E8002046756C6C204475706C65782E2E2E0022
:1017F800424D53523D00000050485953523D00009D
:1018080020313030304D0000203130304D000000A4
:101818002031304D000000002A2A203130304D2080
:1018280046554C4C204455504C4558204C494E4B3D
:1018380020555021202A2A004E4F54453A204E6503
:10184800676F74696174696F6E20696E2070726F5A
:101858006772657373206F72206C696E6B206368A2
:10186800616E67696E672E2E2E00000045746865EC
:10187800726E65742072656164792E204C69737488
:10188800656E696E6720666F7220415250202F2066
:1018980050696E672E2E2E0030313233343536378C
:1018A8003839414243444546000000005B545841E2
:1018B800434B5F544F5D00005B53544F505F544F90
:1018C8005D000000205B4D5354533D30780000000C
:1018D8005D2000005B53544152545F544F5D00003B
:1018E8005B57523A53544152545F4641494C5D004C
:1018F8005B57523A414444525F4E41434B20616426
:1019080064723D30780000005B57523A5245475F99
:10191800485F4E41434B5D005B57523A5245475F23
:101928004C5F4E41434B5D005B57523A4441544132
:101938005F4E41434B5D0000496E69742049324354
:101948002E2E0000493243203130306B487A20690E
:101958006E6974204F4B0000536574746C696E6730
:101968002E2E2E003D2A2A3D2043414D3220494D3E
:101978005832313920494E4954203D2A2A3D000029
:101988002020493243207261772073746174757323
:101998003A000000202053434C5F726561643D00AB
:1019A80020205344415F726561643D0020205374D8
:1019B8006F702073747265616D2E2E2E000000000A
:1019C800204641494C000000202046696E616C2089
:1019D800493243207374617475733A00202043615F
:1019E8006D657261206E6F7420726573706F6E64BE
:1019F800696E67202D20636865636B20706F77655B
:101A0800722F58434C4B2F70756C6C7570730000B7
:101A1800204F4B0020204163636573732073657109
:101A28002E2E2E004E41434B2100000020204D4910
:101A3800504920636F6E6669672E2E2E00000000E5
:101A480020204672616D652074696D696E672E2E5F
:101A58002E0000002020524F492032323478323292
:101A6800342063656E74657265642E2E2E00000046
:101A7800202042696E6E696E672F696E632E2E2E66
:101A880000000000202043534920666D7420524115
:101A980057382E2E2E0000002020504C4C2E2E2E73
:101AA8000000000020204578706F737572652F67FD
:101AB80061696E2E2E2E00002020537461727420EE
:101AC80073747265616D2E2E2E00000020205465FF
:101AD8007374207061747465726E204F46460000FE
:101AE8003D43414D322052454144593D00000000DC
:101AF8003D43414D20534554555020434F4D504C84
:101B08004554453D00000000C0A80132001234567B
:0C1B1800789A00000000000000000000AF
:04000005F9000000FE
:00000001FF
