:02000004F90001
:10000000972100009381817617610000130181F828
:1000100017250000130545B6972500009385C5B543
:100020001386C18163FCC5008322050023A055000F
:100030001305450093854500E3E8C5FE1385C1819E
:10004000938501826378B5002320050013054500E0
:10005000E36CB5FEEF000001EF00106E6F000000D2
:0400600067800000B5
:10006400130101FF23248100232021011724000010
:10007400130444B0172900001309C9AF3309894098
:10008400232611002322910013592940630E0900ED
:100094009304000083270400938414001304440091
:1000A400E7800700E31899FE17240000130484ACCA
:1000B40017290000130909AC330989401359294051
:1000C400630E090093040000832704009384140042
:1000D40013044400E7800700E31899FE8320C1005D
:1000E4000324810083244100032901001301010139
:1000F4006780000083A7C5002324F50083A70500BB
:100104009387F7FF03A7450013178700B3E7E700BA
:1001140003A7850013170701B3E7E7002326F500BB
:1001240067800000B7470F0093870724B3D5F50213
:10013400B7C70000938787FF3306F60083270600BE
:100144003385A5023305F50083270600B307F54080
:10015400E3DC07FE67800000130101FE232E11007B
:10016400930780002320F1002322010023240100AF
:10017400930750032326F10093050100371500F877
:10018400EFF05FF78320C1011301010267800000D3
:10019400371710F8930720002322F7001315550092
:1001A4001375053E136535009395A500B7870000C8
:1001B400938707C0B3F5F5003365B5002320A70086
:1001C400130700009307F07C63CEE700B71710F81D
:1001D40083A7470093F71700639A070013071700D4
:1001E4006FF05FFE930600006F008000930610001E
:1001F4006382060413070000B7A707009387F7116B
:1002040063CEE700B71710F883A7470093F72700DA
:1002140063980700130717006FF01FFE9306000092
:1002240063800602B71710F803A5470013550501AC
:1002340067800000370501001305F5FF67800000A3
:10024400370501001305F5FF67800000B7D700F8F4
:100254001307300023A2E70067800000B7D700F837
:100264001307200023A2E70067800000130101FFA9
:100274002326110023248100232291001304050066
:10028400EFF0DFFC9307803E3304F4023706B0F846
:10029400B7F4FA029385040813050400EFF09FE80D
:1002A400EFF0DFFB3706B0F893850408130504006C
:1002B400EFF05FE78320C100032481008324410021
:1002C4001301010167800000130101FF23261100BF
:1002D400B70710F883A7470093F71700E38A07FED0
:1002E4003706B0F8B7F5FA02938505081305007DC3
:1002F400EFF05FE38320C100130101016780000078
:1003040003470500630C0704130101FF6F0000019C
:100314001305150003470500630E0702B70710F81D
:1003240083A7470093F72700E39A07FEB70710F85F
:1003340023A4E700B76700009387871A2326F100F8
:100344008327C1001387F7FF2326E100E38207FC1C
:100354006FF01FFF13010101678000006780000038
:10036400130101FE232E1100EFF09FF9B70710F8D7
:1003740083A7470093F72700E39A07FEB70710F80F
:100384001307D00023A4E700B76700009387871AF8
:100394002324F100832781001387F7FF2324E1003E
:1003A400638407006FF01FFFB70710F883A74700A7
:1003B40093F72700E39A07FEB70710F81307A00086
:1003C40023A4E700B76700009387871A2326F10068
:1003D4008327C1001387F7FF2326E1006384070006
:1003E4006FF01FFFEFF05FEE8320C10113010102E4
:1003F40067800000130101FF1357C500B72700F9F8
:10040400938747B7B387E70003C70700B70710F818
:1004140083A7470093F7270063960702B70710F8EE
:1004240023A4E700B76700009387871A2326F10007
:100434008327C1001387F7FF2326E10063840700A5
:100444006FF01FFF9357850013F7F700B72700F9E4
:10045400938747B7B387E70003C70700B70710F8C8
:1004640083A7470093F7270063960702B70710F89E
:1004740023A4E700B76700009387871A2324F100B9
:100484006F004000832781001387F7FF2324E100D6
:10049400E39A07FE9357450013F7F700B72700F9CF
:1004A400938747B7B387E70003C70700B70710F878
:1004B40083A7470093F7270063960702B70710F84E
:1004C40023A4E700B76700009387871A2322F1006B
:1004D400832741001387F7FF2322E1006384070089
:1004E4006FF01FFF1375F500B72700F9938747B71F
:1004F4003385A70003470500B70710F883A7470013
:1005040093F7270063960702B70710F823A4E700C0
:10051400B76700009387871A2320F100832701001F
:100524001387F7FF2320E100638407006FF01FFFA8
:100534001301010167800000130101FF232611004C
:10054400232481002322910023202101372500F94F
:10055400130505BDEFF0DFE0372500F91305C5BD30
:10056400EFF01FDAB71410F823A404003706B0F82C
:1005740037F4FA029305040837C50000130505355E
:10058400EFF05FBA9307100023A4F4003706B0F825
:1005940093050408379504001305053EEFF09FB852
:1005A400372500F9130505CDEFF09FDB93052000F7
:1005B40013051000EFF0DFBD1309050093053000AB
:1005C40013051000EFF0DFBC13040500372500F914
:1005D4001305C5BEEFF0DFD213050900EFF09FE16C
:1005E400372500F9130505BFEFF09FD1130504006B
:1005F400EFF05FE0372500F9130545C6EFF05FD64D
:10060400372500F9130545BFEFF09FCF930720006E
:1006140023A2F400B787080D938717C223A0F40020
:10062400130700009307F07C63CEE700B71710F8B8
:1006340083A7470093F71700639A0700130717006F
:100644006FF05FFE930700006F00800093071000B7
:100654006386070213070000B7A707009387F71103
:1006640063CEE700B71710F883A7470093F7270076
:1006740063960700130717006FF01FFE3706B0F8E4
:10068400B7F5FA02938505081305803EEFF09FA99C
:100694009305100113051000EFF09FAF136585104B
:1006A400371710F8930720002322F70013150501CC
:1006B400B7470000938717423365F5002320A7004E
:1006C400130700009307F07C63CEE700B71710F818
:1006D40083A7470093F71700639A070013071700CF
:1006E4006FF05FFE930700006F0080009307100017
:1006F40063860702130700006F00800013071700CA
:10070400B7A707009387F71163CAE700B71710F874
:1007140083A7470093F72700E38207FE3706B0F864
:10072400B7F5FA02938505081305803EEFF09F9F05
:100734009305100113051000EFF09FA513040500A5
:10074400371710F8930720002322F700B78700001B
:10075400938717C22320F700130700009307F07C48
:1007640063CEE700B71710F883A7470093F7170085
:10077400639A0700130717006FF05FFE93070000EA
:100784006F008000930710006386070213070000C0
:100794006F00800013071700B7A707009387F711AE
:1007A40063CAE700B71710F883A7470093F7270039
:1007B400E38207FE372500F9130545C0EFF05FB467
:1007C40013050400EFF01FC393770410638C07062E
:1007D400372500F9130505B9EFF09FB213748400AF
:1007E40063080406372500F9130505BAEFF05FB175
:1007F400372500F9130545C6EFF09FB6372500F9F4
:100804001305C5C0EFF0DFAF371710F893072000CA
:100814002322F700B787430A938717C22320F700E0
:10082400130700009307F07C63CAE702B71710F8B8
:1008340083A7470093F7170063960702130717006F
:100844006FF05FFE372500F9130585B86FF0DFF808
:10085400372500F9130585B96FF05FF99307000098
:100864006F008000930710006386070213070000DF
:10087400B7A707009387F71163CEE700B71710F8FF
:1008840083A7470093F72700639607001307170011
:100894006FF01FFE371710F8930720002322F7008C
:1008A400B7771180938717C22320F700130700003E
:1008B4009307F07C63CEE700B71710F883A74700CF
:1008C40093F71700639A0700130717006FF05FFE92
:1008D400930700006F0080009307100063860702EF
:1008E40013070000B7A707009387F71163CEE7004B
:1008F400B71710F883A7470093F7270063960700FC
:10090400130717006FF01FFE371710F89307200026
:100914002322F700B7773F57938717022320F70066
:10092400130700006F008000130717009307F07C83
:1009340063C2E704B71710F883A7470093F71700BB
:10094400E38407FE93071000638A0702130700007D
:10095400B7A707009387F71163C2E702B71710F828
:1009640083A7470093F72700639A0700130717002C
:100974006FF01FFE930700006FF01FFD371710F88C
:10098400930720002322F700B7870000938717C23C
:100994002320F700130700006F00800013071700DF
:1009A4009307F07C63C2E704B71710F883A74700E6
:1009B40093F71700E38407FE93071000638A070286
:1009C40013070000B7A707009387F71163C2E70274
:1009D400B71710F883A7470093F72700639A070017
:1009E400130717006FF01FFE930700006FF01FFD41
:1009F400372500F9130505CDEFF09F96372500F94B
:100A04001305C5C1EFF0DF95371710F893072000E1
:100A14002322F700B7270002938717422320F70009
:100A2400130700006F008000130717009307F07C82
:100A340063C2E702B71710F883A7470093F71700BC
:100A4400E38407FE93071000638A0702130700007C
:100A54006F000001930700006FF01FFF13071700DA
:100A6400B7A707009387F71163CAE700B71710F811
:100A740083A7470093F72700E38207FE371710F890
:100A8400930720002322F700B7170100938717026A
:100A94002320F700130700009307F07C63CEE700E0
:100AA400B71710F883A7470093F71700639A070056
:100AB400130717006FF05FFE930700006F008000BC
:100AC400930710006386070213070000B7A7070007
:100AD4009387F71163CEE700B71710F883A7470091
:100AE40093F7270063960700130717006FF01FFEA4
:100AF400371710F8930720002322F700B7070012D6
:100B0400938717022320F700130700009307F07C54
:100B140063CEE700B71710F883A7470093F71700D1
:100B2400639A0700130717006FF05FFE13040000B9
:100B34006F00800013041000630004121307000008
:100B4400B7A707009387F71163CEE700B71710F82C
:100B540083A7470093F72700639807161307170026
:100B64006FF01FFE130400006F00000F93060000D7
:100B74006F00800093061000638E060213070000C6
:100B8400B7A707009387F71163CEE700B71710F8EC
:100B940083A7470093F727006398070013071700FC
:100BA4006FF01FFE9306000063860600B71710F867
:100BB40083A74700B71710F81307200023A2E70004
:100BC4001307304223A0E700130700009307F07CCB
:100BD40063CEE700B71710F883A7470093F7170011
:100BE400639A0700130717006FF05FFE9306000077
:100BF4006F00800093061000638C060A1307000040
:100C0400B7A707009387F71163CEE700B71710F86B
:100C140083A7470093F7270063980700130717007B
:100C24006FF01FFE93060000638A0608B71710F8DA
:100C340083A7470093D7070193F74702130740029E
:100C4400638CE70E372500F91305C5EEEFF04FEB83
:100C5400EFF08FE7130414009307900063CA87062C
:100C64003706B0F8B7F5FA029385050837450F0043
:100C740013050524EFF00FCBB71710F81307200066
:100C840023A2E7001307304223A0E7001307000064
:100C94009307F07CE3CCE7ECB71710F883A7470081
:100CA40093F71700E39807EC130717006FF05FFE44
:100CB400B70701009387F7FF6FF01FF8B70701002C
:100CC4009387F7FF6FF05FF7130400006FF0DFF80E
:100CD40093040000372500F9130545C6EFF04FE8EB
:100CE4009305100013051000EFF08FCA9305100050
:100CF40013051000EFF0CFC913040500371710F8DF
:100D0400930720002322F700B787430A938717C26B
:100D14002320F700130700009307F07C63C2E70267
:100D2400B71710F883A7470093F71700639E0700CF
:100D3400130717006FF05FFE930410006FF09FF924
:100D4400930700006F00800093071000638607027A
:100D540013070000B7A707009387F71163CEE700D6
:100D6400B71710F883A7470093F727006396070087
:100D7400130717006FF01FFE3706B0F8B7F5FA0235
:100D8400938505081305803EEFF0CFB99305A001C4
:100D940013051000EFF0CFBF13090500371710F843
:100DA400930720002322F700B7870000938717C218
:100DB4002320F700130700006F00800013071700BB
:100DC4009307F07C63C2E702B71710F883A74700C4
:100DD40093F71700E38407FE93071000638A070262
:100DE400130700006F000001930700006FF01FFF5E
:100DF40013071700B7A707009387F71163CAE70023
:100E0400B71710F883A7470093F72700E38207FE7C
:100E1400372500F91305C5C2EFF08FCE1305040082
:100E2400EFF04FDD93774400638C070A372500F910
:100E3400130505BBEFF0CFCC137404026308040A56
:100E4400372500F9130505BCEFF08FCB372500F9E2
:100E5400130545C6EFF0CFD0135449001374340082
:100E6400372500F9130545C3EFF08FC913050900B1
:100E7400EFF04FD8930720006300F40893071000A5
:100E84006304F408372500F91305C5C4EFF04FC710
:100E94001379890063020908372500F91305C5BCD5
:100EA400EFF00FC6372500F9130545C6EFF04FCB19
:100EB40063860400930720006306F406372500F9CF
:100EC400130585C6EFF0CFC98320C1000324810038
:100ED40083244100032901001301010167800000FC
:100EE400372500F9130585BA6FF0DFF4372500F9CB
:100EF400130585BB6FF05FF5372500F91305C5C3EE
:100F0400EFF00FC06FF0DFF8372500F9130545C483
:100F1400EFF00FBF6FF0DFF7372500F9130585BC3D
:100F24006FF01FF8372500F9130545C5EFF04FC3DF
:100F34006FF09FF9130101FF232611002324810080
:100F44002322910023202101EFF00FA1B7D700F84D
:100F54001307300023A4E7001307200023A2E700AF
:100F6400130400006F0000011305800CEFF00FB0B4
:100F74001304140093072000E3D887FE372500F9F3
:100F8400130505C9EFF0CFBD372500F9130505CAD0
:100F9400EFF00FBDB7D700F81307200023A2E70036
:100FA4003706B0F8B7F5FA029385050837850100CE
:100FB4001305056AEFF00F97372500F9130545CBA4
:100FC400EFF00FBAEF001034372500F9130545CCC4
:100FD400EFF00FB9EFF04FD6372500F9130545CDE3
:100FE400EFF00FB8130400006F000001372500F97B
:100FF4001305C5CFEFF0CFB6EFF04FA53706B0F825
:1010040037F9FA0293050908B7A4070013850412F7
:10101400EFF04F91EFF08FA43706B0F8930509086D
:1010240013850412EFF00F9013041400930740018A
:10103400B367F402E39207FC6FF05FFB130101FF57
:10104400232611002324810023229100EFF00FA016
:101054003706B0F8B7F4FA02938504083784010020
:101064001305046AEFF00F8CEFF04F9F3706B0F8CA
:10107400938504081305046AEFF0CF8A6FF01FFD0F
:10108400B7470F0093870724B3D5F502B7C700000D
:10109400938787FF3306F600832706003385A5026E
:1010A4003305F50083270600B307F540E3DC07FEAC
:1010B4006780000083A705002324F50283A7450069
:1010C4002326F50283A785002328F50283A7C500FC
:1010D4002328F50483A70501232AF50483A74501E2
:1010E400232CF50467800000130101FF232611005F
:1010F400B70710F883A7470093F71700E38A07FEA2
:101104003706B0F8B7F5FA02938505081305007D94
:10111400EFF01FF78320C100130101016780000075
:1011240003470500630C0704130101FF6F0000016E
:101134001305150003470500630E0702B70710F8EF
:1011440083A7470093F72700E39A07FEB70710F831
:1011540023A4E700B76700009387871A2326F100CA
:101164008327C1001387F7FF2326E100E38207FCEE
:101174006FF01FFF1301010167800000678000000A
:10118400130101FE232E1100B7170000938707B047
:101194003365F500B7A700F823A0A70013071030A4
:1011A40023A2E700B7470F00938707242326F10003
:1011B400B7A700F883A7470093F7071063860702D1
:1011C4008327C1009387F7FF2326F100E39207FEEC
:1011D400372500F91305C5D1EFF09FF4EFF0DFF0E8
:1011E4001305F0FF6F008001B7A700F883A7C700BD
:1011F40093F7F70F639A0700130500008320C101DA
:1012040013010102678000001305F0FF6FF01FFF58
:10121400130101FE232E1100B7A700F813070042A3
:1012240023A0E704B7871E00938707482326F1000D
:10123400B7A700F883A7070493F717006382070290
:101244008327C1009387F7FF2326F100E39207FE6B
:10125400372500F9130585D2EFF09FECEFF0DFE8B6
:101264008320C1011301010267800000130101FE04
:10127400232E1100EFF0DFEAB70710F883A7470029
:1012840093F72700E39A07FEB70710F81307D00077
:1012940023A4E700B76700009387871A2324F1008B
:1012A400832781001387F7FF2324E1006384070069
:1012B4006FF01FFFB70710F883A7470093F72700C5
:1012C400E39A07FEB70710F81307A00023A4E7006A
:1012D400B76700009387871A2326F1008327C1008C
:1012E4001387F7FF2326E100638407006FF01FFFD5
:1012F400EFF09FDF8320C10113010102678000002A
:10130400130101FD23261102930730002324F10069
:10131400B7C700009387F7342326F100930710031F
:101324002328F1009307900F232AF100232CF100C6
:10133400232EF1009305810037A500F8EFF09FD725
:10134400372500F9130545D3EFF09FDD372500F964
:10135400130545C6EFF09FF18320C1021301010379
:1013640067800000130101FF13574500B72700F9F8
:10137400938787D0B387E70003C70700B70710F840
:1013840083A7470093F7270063960702B70710F86F
:1013940023A4E700B76700009387871A2326F10088
:1013A4008327C1001387F7FF2326E1006384070026
:1013B4006FF01FFF9377F500372500F9130585D0EB
:1013C4003305F50003470500B70710F883A7470066
:1013D40093F7270063960702B70710F823A4E700E2
:1013E400B76700009387871A2324F1006F00400039
:1013F400832781001387F7FF2324E100E39A07FE84
:101404001301010167800000130101FF232611006D
:10141400232481001304050013558500EFF09FF485
:101424001375F40FEFF01FF48320C100032481002F
:101434001301010167800000130101FF232611003D
:10144400232481001304050013550501EFF0DFFB8D
:101454001315040113550501EFF01FFB8320C10090
:10146400032481001301010167800000130101FFBF
:101474002326110023248100B7A700F803A407043E
:10148400372500F9130585D4EFF09FC9130504002F
:10149400EFF09FFA372500F9130545D5EFF05FC843
:1014A400EFF09FC48320C1000324810013010101D4
:1014B40067800000130101FE232E1100B7A700F876
:1014C4001307002123A0E704B7871E00938707486A
:1014D4002326F100B7A700F883A7070493F70701B1
:1014E400638607028327C1009387F7FF2326F10051
:1014F400E39207FE372500F9130585D5EFF05FC2A7
:10150400EFF0DFF61305F0FF6F0080001305000015
:101514008320C1011301010267800000130101FF50
:1015240023261100232481002322910013040500A3
:1015340093840500EFF01FF86314050613050002F9
:10154400EFF01FC4631A050613558400EFF05FC360
:101554006316050A1375F40FEFF09FC2631A050AA8
:1015640013850400EFF0DFC113040500631C050AB2
:10157400EFF01FCA3706B0F8B7F5FA0293850508ED
:101584001305401FEFF0DFAF130504008320C100F3
:1015940003248100832441001301010167800000BA
:1015A400372500F9130545D6EFF09FB7EFF0DFB309
:1015B4001304F0FF6FF05FFD372500F9130545D7DD
:1015C400EFF01FB613050002EFF0DFD9372500F95D
:1015D400130505D3EFF0DFB4EFF01FB1EFF05FC3F5
:1015E4003706B0F8B7F5FA02938505081305401FCE
:1015F400EFF01FA91304F0FF6FF01FF9372500F96E
:101604001305C5D8EFF0DFB1EFF01FAE6FF01FFD8B
:10161400372500F91305C5D9EFF09FB0EFF0DFAC23
:101624006FF0DFFB372500F91305C5DAEFF05FAF84
:10163400EFF09FAB6FF09FFA130101FF2326110017
:101644002324810023229100372500F91305C5DBEB
:10165400EFF01FADEFF05FA993055000B734000021
:101664001385B40EEFF09FEB130405009305C0003F
:101674001385B40EEFF09FEA3364A4009305F00FD2
:101684001385A400EFF09FE93364A4009305F00FE1
:101694001385B400EFF09FE83364A4009305500071
:1016A4001385B40EEFF09FE73364A4009305900014
:1016B4001385B40EEFF09FE63365A40063020502C0
:1016C400372500F91305C5DCEFF05FBA8320C100AC
:1016D4000324810083244100130101016780000079
:1016E400372500F9130505CDEFF05FB86FF01FFE45
:1016F400130101FF2326110023248100372500F95B
:10170400130545DDEFF09FB6372500F9130505DF16
:10171400EFF01FA1EFF09FD5372500F9130545E041
:10172400EFF01FA037A400F8032544041375450007
:101734003335A000EFF01FC3372500F9130505E189
:10174400EFF01F9E03254404137525003335A000D4
:10175400EFF05FC1372500F9130545C6EFF01FB15F
:10176400372500F91305C5E1EFF09F9BEFF0DF97F4
:101774009305000013050010EFF05FDA63180534D9
:10178400372500F9130505E8EFF05FAEEFF0DFEA67
:10179400372500F9130545E8EFF09F98EFF0DF9443
:1017A4009305100013054011EFF05FD79305000077
:1017B40013058012EFF09FD6930500001305E01285
:1017C400EFF0DFD5930580011305A012EFF01FD5CC
:1017D400930500001305B012EFF05FD4372400F92D
:1017E400130504CDEFF09FA8372500F9130585E90B
:1017F400EFF01F93EFF05F8F930560001305001661
:10180400EFF0DFD19305300E13051016EFF01FD162
:101814009305D00013052016EFF05FD093058007E1
:1018240013053016EFF09FCF130504CDEFF01FA47E
:10183400372500F91305C5EAEFF09F8EEFF0DF8A34
:101844009305500013054016EFF05FCD9305800F0C
:1018540013055016EFF09FCC930560001305601636
:10186400EFF0DFCB9305700D13057016EFF01FCB6F
:101874009305400013058016EFF05FCA9305000638
:1018840013059016EFF09FC9930550001305A01699
:10189400EFF0DFC89305F0031305B016EFF01FC88F
:1018A400930500001305C016EFF05FC79305000E03
:1018B4001305D016EFF09FC6930500001305E0163C
:1018C400EFF0DFC59305000E1305F016EFF01FC50A
:1018D400130504CDEFF09F99372500F9130585EC26
:1018E400EFF01F84EFF05F809305100013050017DD
:1018F400EFF0DFC29305100013051017EFF01FC2BD
:101904009305000013054017EFF05FC19305000035
:1019140013055017EFF09FC0130504CDEFF01F958A
:10192400372500F91305C5EDEFF08FFFEFF0CFFB7E
:10193400930580001305C018EFF05FBE9305800087
:101944001305D018EFF09FBD130504CDEFF01F92DF
:10195400372500F9130505EFEFF08FFCEFF0CFF812
:101964009305400013051030EFF05FBB93051000A2
:1019740013053030EFF09FBA930530001305403063
:10198400EFF0DFB99305300013055030EFF01FB9C5
:101994009305000013056030EFF05FB893059003E2
:1019A40013057030EFF09FB79305A0001305903036
:1019B400EFF0DFB6930510001305B030EFF01FB65B
:1019C400930500001305C030EFF05FB593052007C1
:1019D4001305D030EFF09FB4130504CDEFF01F8949
:1019E400372500F91305C5EFEFF08FF3EFF0CFEFD4
:1019F400930540001305A015EFF05FB29305400571
:101A04001305B015EFF09FB19305900B13057015F6
:101A1400EFF0DFB09305200013058015EFF01FB041
:101A24009305000013059015EFF05FAF130504CD87
:101A3400EFF0DF839305000013052017EFF01FAECE
:101A4400372500F9130505F1EFF08FEDEFF0CFE93D
:101A54003706B0F8B7F5FA02938505083725000074
:101A640013050571EFF0CFE1930510001305001085
:101A7400EFF0DFAA130504CDEFF04FFF372500F98F
:101A8400130545F2EFF0CFE9EFF00FE69305000000
:101A940013050060EFF09FA8930500001305106084
:101AA400EFF0DFA7372500F9130545C6EFF00FFC6B
:101AB400372500F9130585F3EFF04FFB8320C100B0
:101AC400032481001301010167800000372500F918
:101AD400130505E3EFF08FF9372500F9130585E3C6
:101AE400EFF00FE4EFF09F98372500F9130545C692
:101AF400EFF0CFF7372500F91305C5E4EFF00FF742
:101B04006FF0DFFB130101FF23261100372500F9D5
:101B1400130585F4EFF0CFE0EFF00FDDEFF04FFEAB
:101B2400372500F9130545F5EFF08FDFEFF0CFDB34
:101B34003706B0F8B7F5FA029385050837C50000F3
:101B440013050535EFF0CFD3372500F9130505CD7F
:101B5400EFF0CFF1EFF0DFB9372500F9130505F603
:101B6400EFF0CFF08320C100130101016780000072
:101B740030313233343536373839414243444546BF
:101B8400000000002054583D4F4646002054583D64
:101B94004F4E00002052583D4F4646002052583DBB
:101BA4004F4E0000206E6F4C494E4B00204C494E66
:101BB4004B000000206E6F5F414E000020414E5FDD
:101BC4004F4B000020484400204644003D504859F3
:101BD40020494E49543D000050485920485720524E
:101BE40053542E2E2E00000049443D002F000000C7
:101BF40052474D494920444C592E2E2E00000000D6
:101C04005245473D000000004469732047726565F2
:101C14006E4574682E2E2E00314720414E20737479
:101C24006172742E2E2E0000424D53523D0000006E
:101C340050485953523D000020313030304D00009F
:101C4400203130304D0000002031304D00000000C4
:101C54002A2A203147204C494E4B204F4B202A2A18
:101C6400000000005741524E3A206E6F74203147F5
:101C740020E2809420636865636B205048592043B8
:101C84004C4B4F5554202852343729003D563D546F
:101C940031323020494E49543D563D0043414D3286
:101CA40020706F776572206F6E2E2E2E000000005C
:101CB40043616D65726120696E69742E2E2E000079
:101CC40043616D65726120696E6974204F4B000039
:101CD40053747265616D696E672076696120626C08
:101CE40075655F776972655F766964656F5F627554
:101CF400732E2E2E0000000052756E6E696E672ED4
:101D04002E2E0000303132333435363738394142E3
:101D140043444546000000005B545841434B5F5424
:101D24004F5D00005B53544F505F544F5D00000003
:101D3400493243203130306B487A20696E6974200F
:101D44004F4B0000205B4D5354533D30780000004E
:101D54005D2000005B53544152545F544F5D0000BA
:101D64005B57523A53544152545F4641494C5D00CB
:101D74005B57523A414444525F4E41434B206164A5
:101D840064723D30780000005B57523A5245475F19
:101D9400485F4E41434B5D005B57523A5245475FA3
:101DA4004C5F4E41434B5D005B57523A44415441B2
:101DB4005F4E41434B5D00002020416363657373B4
:101DC400207365712E2E2E004E41434B21000000DE
:101DD4003D2A2A3D2043414D3220494D5832313964
:101DE40020494E4954203D2A2A3D000020204932F2
:101DF4004320726177207374617475733A00000034
:101E0400202053434C5F726561643D00202053449D
:101E1400415F726561643D00202053746F702073CC
:101E2400747265616D2E2E2E00000000204641491B
:101E34004C000000202046696E616C20493243202A
:101E44007374617475733A00202043616D65726127
:101E5400206E6F7420726573706F6E64696E672094
:101E64002D20636865636B20706F7765722F58430C
:101E74004C4B2F70756C6C7570730000204F4B00C9
:101E840020204D49504920636F6E6669672E2E2EBF
:101E94000000000020204672616D652074696D6940
:101EA4006E672E2E2E0000002020524F4920323221
:101EB40034783232342063656E74657265642E2E14
:101EC4002E000000202042696E6E696E672F696ED5
:101ED400632E2E2E00000000202043534920666DFF
:101EE4007420524157382E2E2E0000002020504CD2
:101EF4004C2E2E2E0000000020204578706F737544
:101F040072652F6761696E2E2E2E00002020537497
:101F14006172742073747265616D2E2E2E00000040
:101F2400202054657374207061747465726E204F40
:101F3400464600003D43414D322052454144593DFF
:101F440000000000496E6974204932432E2E0000BF
:101F5400536574746C696E672E2E2E003D43414D9B
:101F640020534554555020434F4D504C4554453D06
:0E1F740000000000000000000000000000005F
:04000005F9000000FE
:00000001FF
