:02000004F90001
:10000000972100009381012F17610000130181B037
:100010001725000013050596972500009385859503
:100020001386C18163FCC5008322050023A055000F
:100030001305450093854500E3E8C5FE1385C1819E
:10004000938501826378B5002320050013054500E0
:10005000E36CB5FEEF000001EF1080096F000000B7
:0400600067800000B5
:10006400130101FF23248100232021011724000010
:1000740013040490172900001309898F3309894058
:10008400232611002322910013592940630E0900ED
:100094009304000083270400938414001304440091
:1000A400E7800700E31899FE172400001304448C2A
:1000B400172900001309C98B3309894013592940B2
:1000C400630E090093040000832704009384140042
:1000D40013044400E7800700E31899FE8320C1005D
:1000E4000324810083244100032901001301010139
:1000F4006780000083A7C5002324F50083A70500BB
:100104009387F7FF03A7450013178700B3E7E700BA
:1001140003A7850013170701B3E7E7002326F500BB
:1001240067800000B7470F0093870724B3D5F50213
:10013400B7C70000938787FF3306F60083270600BE
:100144003385A5023305F50083270600B307F54080
:10015400E3DC07FE67800000130101FE232E11007B
:10016400930780002320F1002322010023240100AF
:10017400930750032326F10093050100371500F877
:10018400EFF05FF78320C1011301010267800000D3
:10019400130101FEB72700F99387079783A507008A
:1001A40003A6470083A6870003A7C7002326B10040
:1001B4002328C100232AD100232CE10083C707018F
:1001C400230EF1009357450013070102B307F7000C
:1001D40003C7C7FEB70710F883A7470093F72700A4
:1001E400E39A07FEB70710F823A4E7001375F50098
:1001F400930701023385A7000347C5FEB70710F82C
:1002040083A7470093F72700E39A07FEB70710F880
:1002140023A4E7001301010267800000371710F8D8
:10022400930720002322F700131555001375053E8C
:10023400136535009395A500B7870000938707C021
:10024400B3F5F5003365B5002320A70013070000BC
:100254009307F07C63CEE700B71710F883A7470035
:1002640093F71700639A0700130717006FF05FFEF8
:10027400930600006F00800093061000638206045A
:1002840013070000B7A707009387F71163CEE700B1
:10029400B71710F883A7470093F727006398070060
:1002A400130717006FF01FFE930600006380060219
:1002B400B71710F803A54700135505016780000020
:1002C400370501001305F5FF6780000037050100BD
:1002D4001305F5FF67800000371710F89307200017
:1002E4002322F700131555001375053E13651500F9
:1002F4009395A500B7870000938707C0B3F5F50071
:100304003365B500131606013365C5002320A70025
:10031400130700009307F07C63CEE700B71710F8CB
:1003240083A7470093F71700639A07001307170082
:100334006FF05FFE130500006F00800013051000CE
:100344006308050213070000B7A707009387F71196
:1003540063CEE700B71710F883A7470093F7270089
:1003640063980700130717006FF01FFE13050000C2
:1003740067800000B7D700F81307100023A2E70036
:1003840067800000B7D700F823A207006780000049
:10039400130101FF2326110023248100232291004D
:1003A40013040500EFF01FFD9307803E3304F402AD
:1003B4003706B0F8B7F4FA0293850408130504006D
:1003C400EFF05FD6EFF01FFC3706B0F89385040812
:1003D40013050400EFF01FD58320C100032481001E
:1003E400832441001301010167800000130101FF10
:1003F40023261100B70710F883A7470093F71700C7
:10040400E38A07FE3706B0F8B7F5FA0293850508C4
:100414001305007DEFF01FD18320C10013010101FA
:10042400678000006F000001B70710F823A4E700FD
:100434001305150003470500630C0700B70710F800
:1004440083A7470093F72700E38007FE6FF01FFFA1
:1004540067800000130101FF23261100EFF09FFCC9
:10046400B70710F883A7470093F72700E39A07FE1E
:10047400B70710F81307D00023A4E700B70710F854
:1004840083A7470093F72700E39A07FEB70710F8FE
:100494001307A00023A4E700EFF05FF58320C10059
:1004A4001301010167800000130101FE372700F9E1
:1004B400130747986F000001B70710F823A4D7006B
:1004C4001307170083460700638C0600B70710F86C
:1004D40083A7470093F72700E38007FE6FF01FFF11
:1004E40013578500B72700F99387079703A80700D8
:1004F40083A5470003A6870083A6C700232601011E
:100504002328B100232AC100232CD10083C707016B
:10051400230EF1009357470093060102B387F600B8
:1005240083C6C7FEB70710F883A7470093F72700D1
:10053400E39A07FEB70710F823A4D7001377F70050
:10054400930701023387E7000347C7FEB70710F894
:1005540083A7470093F72700E39A07FEB70710F82D
:1005640023A4E7001375F50FB72700F993870797BE
:1005740083A5070003A6470083A6870003A7C70037
:100584002326B1002328C100232AD100232CE10013
:1005940083C70701230EF100935745001307010297
:1005A400B307F70003C7C7FEB70710F883A74700D0
:1005B40093F72700E39A07FEB70710F823A4E70090
:1005C4001375F500930701023385A7000347C5FEA1
:1005D400B70710F883A7470093F72700E39A07FEAD
:1005E400B70710F823A4E700130101026780000095
:1005F400130101FE372700F9130747986F00000124
:10060400B70710F823A4D700130717008346070081
:10061400638C0600B70710F883A7470093F72700F9
:10062400E38007FE6FF01FFF9357050193D6870001
:10063400372700F913070797832807000328470083
:10064400832587000326C7002326110123280101DF
:10065400232AB100232CC10003470701230EE10024
:1006640013D74600130601023307E6000346C7FE0C
:10067400370710F80327470013772700E31A07FE0C
:10068400370710F82324C70093F6F6001307010276
:10069400B306D70083C6C6FE370710F80327470002
:1006A40013772700E31A07FE370710F82324D7002F
:1006B40093F7F70F372700F9130707970328070065
:1006C40083254700032687008326C70023260101CC
:1006D4002328B100232AC100232CD100034707019A
:1006E400230EE10013D74700930601023387E60087
:1006F4008346C7FE370710F8032747001377270000
:10070400E31A07FE370710F82324D70093F7F700FE
:1007140013070102B307F70003C7C7FEB70710F8B2
:1007240083A7470093F72700E39A07FEB70710F85B
:1007340023A4E7009317050193D7070193D78700F4
:10074400372700F913070797032807008325470075
:10075400032687008326C700232601012328B1002E
:10076400232AC100232CD10003470701230EE100F3
:1007740013D74700930601023387E6008346C7FE7A
:10078400370710F80327470013772700E31A07FEFB
:10079400370710F82324D70093F7F7001307010253
:1007A400B307F70003C7C7FEB70710F883A74700CE
:1007B40093F72700E39A07FEB70710F823A4E7008E
:1007C4001375F50FB72700F99387079783A50700DB
:1007D40003A6470083A6870003A7C7002326B1000A
:1007E4002328C100232AD100232CE10083C7070159
:1007F400230EF1009357450013070102B307F700D6
:1008040003C7C7FEB70710F883A7470093F727006D
:10081400E39A07FEB70710F823A4E7001375F50061
:10082400930701023385A7000347C5FEB70710F8F5
:1008340083A7470093F72700E39A07FEB70710F84A
:1008440023A4E7001301010267800000371710F8A2
:10085400930720002322F7009317550093F7073ED0
:1008640093E737402320F700930700001307F07C39
:10087400634EF700371710F8032747001377170064
:10088400631A0700938717006FF05FFE930600005A
:100894006F00800093061000638E060213070000A9
:1008A400B7A707009387F71163CEE700B71710F8CF
:1008B40083A7470093F727006398070013071700DF
:1008C4006FF01FFE9306000063860600B71710F84A
:1008D40083A74700B71710F81307200023A2E700E7
:1008E400131555001375053E1365354023A0A70065
:1008F400930700006F008000938717001307F07CB4
:100904006342F704371710F80327470013771700DB
:10091400E30407FE93061000638C0604130700002B
:10092400B7A707009387F71163C2E702B71710F858
:1009340083A7470093F72700639C0700130717005A
:100944006FF01FFE930600006FF01FFD930600007A
:1009540063860602B71710F803A54700135505016F
:10096400B70701009387F7FF6300F5026780000073
:10097400370501001305F5FF6FF09FFE37050100F1
:100984001305F5FF6FF0DFFD130500006FF01FFE88
:10099400130101FF23261100232481001304050001
:1009A400B71610F89307200023A2F60093175500FA
:1009B40093F7073E37870000130717C0B3E7E70034
:1009C4003707430AB3E7E70023A0F60093070000C4
:1009D4001307F07C634EF700371710F8032747001E
:1009E40013771700631A0700938717006FF05FFEF1
:1009F400930700006F0080009307100063860702CE
:100A040013070000B7A707009387F71163CEE70029
:100A1400B71710F883A7470093F7270063960700DA
:100A2400130717006FF01FFE3706B0F8B7F5FA0288
:100A3400938505081305803EEFF0CFEEB71610F846
:100A44009307200023A2F6009317540093F7073E60
:100A54003777000013073780B3E7E70023A0F600D9
:100A6400930700006F008000938717001307F07C42
:100A74006342F704371710F803274700137717006A
:100A8400E30407FE930610006388060813070000BA
:100A9400B7A707009387F71163C2E702B71710F8E7
:100AA40083A7470093F72700639C070013071700E9
:100AB4006FF01FFE930600006FF01FFD9306000009
:100AC40063820606B71710F803A5470013550501FE
:100AD400371710F8930720002322F700131454004B
:100AE4001374043EB7870000938717C03364F4007F
:100AF40023208700930700001307F07C634AF70262
:100B0400371710F8032747001377170063160702F7
:100B1400938717006FF05FFE370501001305F5FF9B
:100B24006FF01FFB370501001305F5FF6FF05FFA47
:100B3400930700006F00800093071000638607028C
:100B440013070000B7A707009387F71163CEE700E8
:100B5400B71710F883A7470093F727006396070099
:100B6400130717006FF01FFE8320C10003248100C8
:100B74001301010167800000130101FF2326110006
:100B84002324810023229100232021011304050042
:100B94001389050093040600B71610F89307200084
:100BA40023A2F6009317550093F7073E37870000FA
:100BB400130717C0B3E7E7003707080DB3E7E700EB
:100BC40023A0F600930700001307F07C634EF700A0
:100BD400371710F80327470013771700631A070025
:100BE400938717006FF05FFE930700006F0080008B
:100BF400930710006386070213070000B7A70700D6
:100C04009387F71163CEE700B71710F883A747005F
:100C140093F7270063960700130717006FF01FFE72
:100C24003706B0F8B7F5FA02938505081305803E38
:100C3400EFF04FCFB71610F89307200023A2F60069
:100C44009317540093F7073E3747000013073740C4
:100C5400B3E7E70023A0F600930700006F008000CD
:100C6400938717001307F07C6342F704371710F8D3
:100C74000327470013771700E30407FE93061000C9
:100C84006384060A13070000B7A707009387F711C8
:100C940063C2E702B71710F883A7470093F727004A
:100CA400639C0700130717006FF01FFE93060000F4
:100CB4006FF01FFD93060000638E0606B71710F849
:100CC40083A7470093D70701630C090693E707102E
:100CD4006380040893E78700371610F81307200091
:100CE4002322E600131754001377073EB74600008B
:100CF400938616403367D70093970701B367F700CD
:100D04002320F600930700001307F07C634AF704DE
:100D1400371710F8032747001377170063160704E3
:100D2400938717006FF05FFEB70701009387F7FF03
:100D34006FF09FF9B70701009387F7FF6FF0DFF8B3
:100D440093F7F7EF9397070193D707016FF05FF8D5
:100D540093F777FF9397070193D707016FF0DFF7B6
:100D6400930700006F00800093071000638607025A
:100D740013070000B7A707009387F71163CEE700B6
:100D8400B71710F883A7470093F727006396070067
:100D9400130717006FF01FFE3706B0F8B7F5FA0215
:100DA400938505081305803EEFF0CFB7B71610F80A
:100DB4009307200023A2F6009317540093F7073EED
:100DC4003747000013073740B3E7E70023A0F600D6
:100DD400930700001307F07C634EF700371710F8F1
:100DE4000327470013771700631A07009387170038
:100DF4006FF05FFE930600006F0080009306100002
:100E04006384060813070000B7A707009387F71148
:100E140063CEE700B71710F883A7470093F72700BE
:100E240063980700130717006FF01FFE9306000076
:100E340063820606B71710F883A4470093D404010D
:100E4400371710F8930720002322F70013145400D7
:100E54001374043EB7870000938717C03364F4000B
:100E640023208700930700001307F07C634AF702EE
:100E7400371710F803274700137717006316070284
:100E8400938717006FF05FFEB70401009384F4FFAB
:100E94006FF01FFBB70401009384F4FF6FF05FFA57
:100EA400930700006F008000930710006386070219
:100EB40013070000B7A707009387F71163CEE70075
:100EC400B71710F883A7470093F727006396070026
:100ED400130717006FF01FFE372500F91305859AD5
:100EE400EFF04FD413850400EFF00FDC93F70410F8
:100EF40063840704372500F913050599EFF08FD2B1
:100F040093F4840063800404372500F91305059ADB
:100F1400EFF04FD1372500F91305859CEFF08FD3FF
:100F24008320C1000324810083244100032901009C
:100F34001301010167800000372500F91305859826
:100F44006FF0DFFB372500F9130585996FF05FFC1F
:100F5400130101FF23261100B72710F8130710000F
:100F640023AEE7001307002023A0E7023707A8C039
:100F74009306271023A2D7029306F0FF23A4D702D7
:100F8400B70601009386F6FF23A6D70213071710AE
:100F940023A8E702371789131307873823AAE70220
:100FA4001307900023A0E700372500F91305459B9C
:100FB400EFF04FCA8320C1001301010167800000D4
:100FC400130101FF23261100232481002322910011
:100FD4002320210193040500138905001304803E96
:100FE400B72710F883A7470093F707016382070226
:100FF4001304F4FF635E80003706B0F8B7F5FA0215
:10100400938505081305A000EFF0CF916FF05FFD05
:1010140063588004372410F8232C94003706B0F862
:10102400B7F5FA029385050813054006EFF08F8F94
:10103400935789012324F4009357090193F7F70F79
:101044002324F4009357890093F7F70F2324F40023
:101054001379F90F23242401930740006F00400201
:10106400372500F91305059CEFF0CFBE6F0080060D
:1010740093F6F70F372710F82324D7009387170028
:10108400E3C897FEB72710F81307B00023A0E700C2
:101094003724000013040471B72710F883A747000E
:1010A40093F72700639207021304F4FF635E800042
:1010B4003706B0F8B7F5FA02938505081305100052
:1010C400EFF04F866FF05FFDB72710F8130720008D
:1010D40023A2E7008320C10003248100832441006C
:1010E400032901001301010167800000130101FCC1
:1010F400232E1102232C8102232A91022328210367
:1011040023263103EFF04F85B7D700F813071000FB
:1011140023A4E70023A20700130400009307200080
:1011240063CA87001305800CEFF08FA61304140024
:101134006FF0DFFE372500F91305859EEFF08FB1C0
:10114400372500F91305859FEFF0CFADEFF00FAA17
:10115400B71410F823A404003706B0F837F4FA02E1
:101164009305040837C5000013050535EFE09FFB20
:101174009307100023A4F4003706B0F8930504087D
:10118400379504001305053EEFE0DFF9372500F934
:10119400130545A0EFF00FAC9305200013051000D4
:1011A400EFF0CF879304050093053000130510007A
:1011B400EFF0CF8613040500372500F9130585A049
:1011C400EFF04FA613850400EFF00FAE372500F9BA
:1011D4001305C5A0EFF00FA513050400EFF0CFAC85
:1011E400B72400F91385849CEFF0CFA6372500F9C6
:1011F400130505A1EFF00FA61306100093051000C8
:1012040013051000EFF05F97372500F91305C5A10A
:10121400EFF04FA437140000130634A49305F00133
:1012240013051000EFF04F8B3786000013061601EC
:101234009305B00113051000EFF00F8A9305B00178
:1012440013051000EFE09FFD9309050037560000D9
:101254001306F6739305C00113051000EFF0CF8752
:101264009305C00113051000EFE05FFB13090500AF
:10127400130600009305F00113051000EFF0CF856D
:10128400372500F9130585A2EFF0CF9913850900DE
:10129400EFF08FA1372500F9130505A3EFF08F9820
:1012A40013050900EFF04FA01385849CEFF08F9A8B
:1012B400372500F9130585A3EFF0CF991306002015
:1012C4009305900013051000EFF00F811306100032
:1012D4009305400013051000EFF00F80130604205F
:1012E4009305000013051000EFE01FFF372500F9F8
:1012F400130505A4EFF00F93EFF04F8F13040000D4
:101304006F008001372500F9130505A0EFF08F91D8
:10131400EFF0CF8D130414009307E00063CC870231
:101324003706B0F8B7F5FA029385050837450F007C
:1013340013050524EFE01FDF13051000EFF00FD1B4
:101344001375450293074002E31EF5FA9304100057
:101354006F00800093040000372500F91305859C75
:10136400EFF04F8F13051000EFF04FCE93090500F7
:1013740013051000EFF0CFE113090500372500F93C
:10138400130585A4EFF00F8A13850900EFF0CF91C0
:1013940093F74900638E0710372500F91305059D5F
:1013A400EFF04F8893F70902638A0710372500F995
:1013B4001305C59DEFF00F87372500F91305859CAC
:1013C400EFF04F89372500F9130505A5EFF08F8558
:1013D40013050900EFF04F8D1354490013743400C2
:1013E4006304040E930710006308F40E93072000AF
:1013F400630CF40E1379890063000910372500F992
:101404001305459EEFF00F82372500F91305859CDF
:10141400EFF04F8463860400930720006304F40E06
:10142400372500F9130505A7EFF0CF82372500F91A
:10143400130585A7EFF00F82372500F9130505AAD8
:10144400EFF04F81EFF0DFB0B72710F803A44700A7
:10145400372500F91305C5AAEFE0DFFC13050400E6
:10146400EFF00F99372500F91305859CEFE09FFEF7
:10147400372500F9130545ABEFE0DFFD1304000049
:10148400130900009307900063C6870893041900AA
:101494009305090013054006EFF09FB21305A00061
:1014A400EFE01FEF13041400138904006FF09FFD95
:1014B400372500F91305C59C6FF09FEE372500F919
:1014C4001305459D6FF01FEF372500F9130585A51A
:1014D400EFE05FF56FF01FF2372500F9130505A65D
:1014E400EFE05FF46FF01FF1372500F9130585A6CF
:1014F400EFE05FF36FF01FF0372500F91305059E49
:101504006FF05FF0372500F91305C5A8EFE09FF4ED
:101514006FF09FF2372500F9130505ACEFE09FF05B
:1015240013050000EFE0DFC61305A000EFE05FC67F
:10153400372500F9130585ACEFE0DFF1372500F915
:10154400130505ADEFE01FF1372500F91305C5AD0F
:10155400EFE05FF0930400006F00C03D372500F911
:10156400130585A4EFE01FEC13050400EFE0DFF39F
:101574009377440063820702372500F91305059D1C
:10158400EFE05FEA372500F91305859CEFE09FEC57
:10159400930904006F00003B372500F91305C59C2F
:1015A4006FF01FFEEFE01FDE9307A000B3E7F40225
:1015B40063920736B72710F803A48703372500F989
:1015C4001305C5AEEFE01FE69397040193D7070117
:1015D40093D78700372700F91307079703250700D8
:1015E40083254700032687008326C7002326A100FE
:1015F4002328B100232AC100232CD100034707016B
:10160400230EE10013D74700930601023387E60057
:101614008346C7FE370710F80327470013772700D0
:10162400E31A07FE370710F82324D70093F7F700CF
:1016340013070102B307F70003C7C7FEB70710F883
:1016440083A7470093F72700E39A07FEB70710F82C
:1016540023A4E70013F7F40FB72700F9938707973C
:1016640003A5070083A5470003A6870083A6C70038
:101674002326A1002328B100232AC100232CD10052
:1016840083C70701230EF100935747009306010215
:10169400B387F60083C6C7FEB70710F883A74700D1
:1016A40093F72700E39A07FEB70710F823A4D7009F
:1016B4001377F700930701023387E7000347C7FE58
:1016C400B70710F883A7470093F72700E39A07FEAC
:1016D400B70710F823A4E700372500F9130505AF71
:1016E400EFE05FD49317040193D7070193D78700E2
:1016F400372700F9130707970325070083254700B9
:10170400032687008326C7002326A1002328B100CF
:10171400232AC100232CD10003470701230EE10033
:1017240013D74700930601023387E6008346C7FEBA
:10173400370710F80327470013772700E31A07FE3B
:10174400370710F82324D70093F7F7001307010293
:10175400B307F70003C7C7FEB70710F883A747000E
:1017640093F72700E39A07FEB70710F823A4E700CE
:101774001377F40FB72700F99387079703A507009A
:1017840083A5470003A6870083A6C7002326A100DC
:101794002328B100232AC100232CD10083C70701C9
:1017A400230EF1009357470093060102B387F60016
:1017B40083C6C7FEB70710F883A7470093F727002F
:1017C400E39A07FEB70710F823A4D7001377F700AE
:1017D400930701023387E7000347C7FEB70710F8F2
:1017E40083A7470093F72700E39A07FEB70710F88B
:1017F40023A4E70013858180EFE0DFC213540401C2
:1018040013578400B72700F99387079703A50700A8
:1018140083A5470003A6870083A6C7002326A1004B
:101824002328B100232AC100232CD10083C7070138
:10183400230EF1009357470093060102B387F60085
:1018440083C6C7FEB70710F883A7470093F727009E
:10185400E39A07FEB70710F823A4D7001377F7001D
:10186400930701023387E7000347C7FEB70710F861
:1018740083A7470093F72700E39A07FEB70710F8FA
:1018840023A4E7001374F40FB72700F9938707978D
:1018940083A5070003A6470083A6870003A7C70004
:1018A4002326B1002328C100232AD100232CE100E0
:1018B40083C70701230EF100935744001307010265
:1018C400B307F70003C7C7FEB70710F883A747009D
:1018D40093F72700E39A07FEB70710F823A4E7005D
:1018E4001374F40093070102338487000347C4FE92
:1018F400B70710F883A7470093F72700E39A07FE7A
:10190400B70710F823A4E700372500F91305859CD1
:10191400EFE05FB43706B0F8B7F5FA02938505082F
:1019240037450F0013050524EFE0CFFF938414001F
:10193400EFE05FA513051000EFE05FF1130405006D
:10194400E39EA9C013744400E30E04C413041900F5
:101954009305090013054006EFF08FE6EFE09FA121
:0C196400130904006FF05FC46F00000066
:1019700030313233343536373839414243444546C5
:1019800000000000307800002054583D4F464600CB
:101990002054583D4F4E00002052583D4F464600BF
:1019A0002052583D4F4E0000444C595F5245473D30
:1019B0000000000045544820434647204F4B00009C
:1019C00054582046554C4C210000000020444E0045
:1019D00020555000206E6F414E00000020414E0007
:1019E00020484400204644003D3D314720554450A6
:1019F00020546573743D3D004857205253542E2E99
:101A00002E000000204F4B0049443D002F000000F5
:101A10003D52474D494920444C593D003D444953AE
:101A200020475245454E3D005232373D00000000F0
:101A3000205232383D0000003D314720414E3D00EC
:101A40005761697400000000424D53523D00000090
:101A5000504853523D0000002031304D000000003E
:101A6000203130304D00000020313030304D00004A
:101A70004E4F542031472100436865636B20434C2F
:101A80004B4F555420285234372900002A2A203140
:101A900047204C494E4B204F4B202A2A0000000083
:101AA0003D455448204346473D0000005354533DB4
:101AB000000000003D5544502054583D00000000F7
:101AC00053656E742000000020706B74730000007A
:101AD0003D4D4F4E49544F523D00000050433A2077
:101AE0006E63202D756C2035303031005B000000B6
:101AF0005D2054583D0000002052583D0000000079
:0A1B000000000000000000000000DB
:04000005F9000000FE
:00000001FF
