:02000004F90001
:100000009711000093818192174100001301811420
:1000100013850181938501811386C18163FCC5002D
:100020008322050023A05500130545009385450054
:10003000E3E8C5FE1385C181938501826378B5002D
:100040002320050013054500E36CB5FEEF00000119
:0C005000EF00000B6F0000006780000054
:10005C00130101FF2324810023202101138401813A
:10006C001389018133098940232611002322910031
:10007C0013592940630E09009304000083270400E0
:10008C009384140013044400E7800700E31899FEDE
:10009C001384018113890181330989401359294043
:1000AC00630E09009304000083270400938414005A
:1000BC0013044400E7800700E31899FE8320C10075
:1000CC000324810083244100032901001301010151
:1000DC0067800000130101FF2326A1008327C100C4
:1000EC001387F7FF2326E100E39A07FE13010101B2
:1000FC0067800000130101FF2326110023248100D7
:10010C0023229100B75401F89307100023A0F400A8
:10011C003794980013050468EFF0DFFB23A004006C
:0C012C0013050468EFF01FFB6FF0DFFD0F
:0A01380000000000000000000000BD
:04000005F9000000FE
:00000001FF
