:10100000976101009381014B17710100130181D198
:10101000174501001305853097450100938505307C
:101020001386C18263FCC5008322050023A05500FE
:101030001305450093854500E3E8C5FE1385C1828D
:10104000938501876378B5002320050013054500CB
:10105000E36CB5FEEF00000CEFF0405B6F000000AA
:0410600067800000A5
:10106400B367B50093F737006392070803A7050039
:10107400B7867F7F9386F6F7B377D700B387D70019
:10108400B3E7E700B3E7D7001306F0FF639EC70694
:10109400130605001308F0FF130646009385450068
:1010A400232EE6FE03A70500B377D700B387D70046
:1010B400B3E7E700B3E7D700E38007FF83C7050082
:1010C40003C7150083C625002300F600638A0700C2
:1010D400A300E600630607002301D600639406001C
:1010E40067800000A30106006780000093070500E5
:1010F40003C705009387170093851500A38FE7FEA8
:10110400E31807FE67800000130605006FF01FFB5D
:10111400130101FF2324810023202101174401002E
:101124001304841F174901001309091F3309894057
:10113400232611002322910013592940630E09002C
:1011440093040000832704009384140013044400D0
:10115400E7800700E31899FE174401001304C41B39
:10116400174901001309491B3309894013592940C0
:10117400630E090093040000832704009384140081
:1011840013044400E7800700E31899FE8320C1009C
:101194000324810083244100032901001301010178
:1011A40067800000130101FC2324C1022326D1021D
:1011B400232AF1022328E102232C0103232E110305
:1011C4001386050083258500930781029386070013
:1011D400232E11002326F100EF0080328320C10169
:1011E40013010104678000001383018103230300BA
:1011F400130101FC2324C1022326D102232AF10274
:101204002322B1022328E102232C0103232E1103FC
:101214008325830093074102130605009386070084
:1012240013050300232E11002326F100EF00402DA7
:101234008320C10113010104678000000326850097
:101244006F00C0019387018183A707009305050000
:1012540003A68700138507006F004000130101FEF9
:10126400232C8100232E11001304050063060500BE
:101274008327850363860704832786009387F7FF04
:101284002324F60063DC07000327860163C6E70412
:1012940093F7F50F1307A0006380E7048327060084
:1012A40013F5F50F138717002320E6002380B700FA
:1012B4008320C1010324810113010102678000001E
:1012C4002326C1002324B100EF3040740326C1005B
:1012D400832581006FF05FFA130504000324810164
:1012E4008320C101130101026F201061130101FE6B
:1012F40093870181232C810003A40700232A9100F2
:10130400232E11009304050063060400832784033D
:101314006388070483A785009387F7FF23A4F50058
:1013240063DC070003A7850163C6E70493F7F40FA2
:101334001307A0006380E70483A7050013F5F40FE7
:101344001387170023A0E500238097008320C101A1
:1013540003248101832441011301010267800000F9
:10136400130504002326B100EF30406A8325C10031
:101374006FF05FFA13050400032481018320C10187
:10138400138605009385040083244101130101029F
:101394006F209056130101FC232C810213040500D5
:1013A40013850500232A9102232E1102938405003C
:1013B400EF00400C13071500974601009386C625DD
:1013C400232EE10083278403130701022324D1027F
:1013D400232AE10093061000130720002320910222
:1013E4002322A1022326D102232CE1008325840099
:1013F400638007068397C50013972701634207029A
:1014040003A74506B7260000B3E7D700B7E6FFFFFA
:101414009386F6FF3377D7002396F50023A2E506DB
:101424001306410113050400EF3010278320C10384
:10143400032481033335A0003305A040137555FF01
:10144400832441031305A5001301010467800000F0
:10145400130504002326B100EF30405B8325C1004F
:101464006FF05FF9938701819305050003A50700D9
:101474006FF05FF29377350013070500639C070450
:10148400B7867F7F9386F6F79305F0FF130747002F
:101494000326C7FFB377D600B387D700B3E7C700E7
:1014A400B3E7D700E384B7FE8346C7FFB307A7407B
:1014B4000346D7FF0345E7FF63800604630A060279
:1014C4003335A0003305F5001305E5FF6780000000
:1014D400E38806FA8347070013071700937637005B
:1014E400E39807FE3307A7401305F7FF6780000062
:1014F4001385D7FF678000001385C7FF678000004E
:10150400130101E12326111E2324811E2324811D9E
:101514002322B100130C06002326D1002322911E9E
:101524002320211F232E311D232C411D232A511D2D
:101534002328611D2326711D2322911D2320A11D13
:10154400232EB11B13040500232EA100EF60D02924
:1015540083270500138507002328F102EFF09FF18C
:101564002324A1022328010E232A010E232C010E79
:10157400232E010E6306040083278403E3840754A7
:10158400032641000317C6009317070193D70701E9
:101594009396270163C6060283264606B7270000F2
:1015A400B367F70037E7FFFF1307F7FF33F7E600EA
:1015B4002316F600939707012322E60693D7070123
:1015C40013F7870063080716032741000327070161
:1015D4006302071693F7A7011307A0006380E718B7
:1015E400930C0C0003C70C009307C1102322F10EC7
:1015F4002326010E2324010E232C0100232601029D
:10160400232C0102232E010223200104232201049E
:1016140023240100930B0001138D0700032AC10149
:10162400630E073E930650026314D7006F10C07711
:1016340013840C006F00C0006386D71413040900E0
:101644008347140013091400E39807FEB304994177
:101654006386043C8326C10E0327810E23209D014B
:10166400B38696001307170023229D002326D10E6C
:101674002324E10E93067000130D8D0063CAE61057
:101684008327810003471400B38797002324F100C4
:10169400630607381303F0FF93041900034E19007F
:1016A400A303010C13040000130900009309900024
:1016B400130BA002130C030093841400930A0E006E
:1016C4001307A00593870AFE6360F7249746010079
:1016D4009386C6F493972700B387D70083A70700A0
:1016E400B387D7006780070013050A00EF60D00FA7
:1016F40083274500138507002322F104EFF09FD7C9
:101704002320A104930A050013050A00EF60D00DFD
:1017140083278500232EF10263840A006F10C052D0
:1017240003CE04006FF05FF91369090203CE0400CD
:101734006FF09FF8832541000325C101EF20503548
:10174400630405006F204046832741001307A0006F
:1017540083D7C70093F7A701E394E7E88327410001
:101764008397E700E3CE07E68326C1008325410083
:101774000325C10113060C00EF20100C2324A10043
:101784006F008006B3049941E38604F06FF09FEC88
:10179400832541001306410E13050A00EFB0D069FA
:1017A400631A0502130DC1106FF09FED83254100EC
:1017B4001306410E13050A00EFB0106863020554C6
:1017C40083270101638807000325C101938507006E
:1017D400EF30003B8327410083D7C70093F707040A
:1017E400638407006F20403C8320C11E0324811EB4
:1017F400032581008324411E0329011E8329C11D61
:10180400032A811D832A411D032B011D832BC11C27
:10181400032C811C832C411C032D011C832DC11B13
:101824001301011F67800000974701009387C7F6E3
:101834002326F1029377090213030C006380071037
:101844008327C1009387770093F787FF03AC0700D2
:1018540083AD4700138787002326E100937719009F
:1018640063880700B367BC01638407006F10003A04
:101874009379F9BF93072000A303010C1307F0FF2A
:10188400E30CE30A3367BC0113F9F9F763040700B7
:101894006F00907DE31E032C639A072213FB19004B
:1018A400930C011B63040B006F10003193090B00B0
:1018B40063546B00930903000347710C2328010050
:1018C4002322010223200102232A0100630007349A
:1018D400938919006F0080331304000093860AFD76
:1018E400938414009317240083CAF4FFB3878700FA
:1018F400939717003384F60093860AFDE3F2D9FE2A
:1019040093870AFEE374F7DC638A0A1023065115F1
:10191400A303010C93091000130B1000930CC114C2
:101924006F00802D97470100938747E82326F10233
:101934009377090213030C00E39407F00327C10013
:1019440093770901032C0700130747002326E100BE
:10195400638407006F10C02793770904639407001A
:101964006F108026131C0C01135C0C01930D0000F6
:101974006FF0DFEE03CE0400136949006FF0DFD38C
:1019840083CA04009387140063946A016F20806300
:1019940093860AFD93840700130C0000E3E4D9D274
:1019A4009384140093172C0083CAF4FFB387870130
:1019B40093971700338CD70093860AFDE3F2D9FE80
:1019C4006FF05FD08326C100937709021387460026
:1019D400638407006F10402593770901638407002F
:1019E4006F10406593770904638407006F10102417
:1019F40013790920631409006F10C0638327C100A1
:101A04002326E1000327810083A70700938C0400A9
:101A14002380E70003C70C00E31607C08327C10E29
:101A2400E38A07DA832541000325C1011306410E29
:101A3400EFB090406FF01FDA03CE04009307C006A6
:101A44006314FE006F10802C136909016FF0DFC668
:101A540003CE0400930780066314FE006F10002A6F
:101A6400136909046FF05FC59377090213030C002F
:101A7400E39007068327C100137709019387470082
:101A8400630407006F20C058137709046314070028
:101A94006F1040670327C100930909002326F10052
:101AA400031C0700935DFC4113870D006344076624
:101AB4009307F0FFE30CF308B367BC0113F9F9F7DC
:101AC400E3940708630403006F10905C13030000A1
:101AD400130B0000930C011B6FF05FDD1369090801
:101AE40003CE04006FF05FBD9377090213030C006B
:101AF40093690901E39407008327C1009387470092
:101B04000327C100930D00002326F100032C0700D6
:101B1400930710006FF05FD68327C100A303010C65
:101B240013030C0083AC0700138C470063940C0070
:101B34006F10C01E1307F0FF6314E3006F10805B87
:101B4400130603009305000013850C00232661008F
:101B5400EF60D07B2328A1000323C1006314050098
:101B64006F10507983270101338B97410347710C20
:101B74009349FBFF93D9F9412326810123280100CE
:101B84002322010223200102232A0100B3793B010D
:101B940013030000E31E07D26F0040079377090286
:101BA40013030C0013690901639C07768327C100A2
:101BB400938747000327C100930D00002326F100FB
:101BC400032C07006F0080771369890003CE04009B
:101BD4006FF09FAE0327C100A303010C930910000B
:101BE40083270700130747002326E1002306F11487
:101BF400130B1000930CC1142328010013030000DD
:101C04002322010223200102232A0100937F2900B9
:101C140063840F0093892900937D49080327C10E2B
:101C240063960D0033083441E34400458346710C48
:101C3400638A06028326810E1306710C2320CD00CD
:101C44001307170013061000938616002322CD00F5
:101C54002326E10E2324D10E13067000130D8D00EC
:101C64006342D60C638A0F028326810E1306810C0D
:101C74002320CD00130727001306200093861600A7
:101C84002322CD002326E10E2324D10E1306700057
:101C9400130D8D00E340D65093060008E38CDD0657
:101CA400330C6341E34C80179376091063900672FA
:101CB4008327810E3307670123209D019387170033
:101CC40023226D012326E10E2324F10E93067000D6
:101CD400130D8D00E3C8F626137949006306090045
:101CE40033093441634820076354340113840900E1
:101CF40083278100B38787002324F100E31807AA10
:101D0400832701012324010E638807008325010131
:101D140013050A00EF20D066130DC110938C040044
:101D24006FF05FCF832541001306410E13050A00AF
:101D340023246104232AF103EFB01010E31205A851
:101D44000327C10E130DC11003238104832F410304
:101D54006FF05FF18327810E174C0100130C0CA761
:101D640063D02B07130B7000832A41006F00C0005F
:101D7400130909FF63D62B0513070701938717007F
:101D840023208D0123227D012326E10E2324F10E3D
:101D9400130D8D00E35EFBFC1306410E93850A00D0
:101DA40013050A00EFB05009E31C05A0130909FF4D
:101DB4000327C10E8327810E130DC110E3CE2BFB25
:101DC400330727019387170023208D0123222D0138
:101DD4002326E10E2324F10E93067000E3D6F6F0D9
:101DE400832541001306410E13050A00EFB0D00409
:101DF400E318059C0327C10E6FF01FEF13778900CA
:101E040013030C00E31A075C8327C1001305010BBD
:101E1400232881019387770093F787FF83A5070021
:101E240003A64700938787002326F100EF209162E1
:101E34000327010B032301012328E10E0327410B90
:101E4400232AE10E0327810B232CE10E0327C10B68
:101E5400232EE10E1305010F23286100EF60001209
:101E64002326A10C13072000032301016314E500BA
:101E74006F104014130710006314E5006F10402E18
:101E8400130710066394EA006F10505F13071004E1
:101E94006394EA006F10406393F7FAFD1307F0FFB1
:101EA4002324F1046314E3006F1090671307700494
:101EB4006394E7006F10D065032BC10F232A21051B
:101EC40013670910032F010F832D410F832E810FF8
:101ED40063540B006F10D027232E0104130907004D
:101EE4002328010003278104930760046314F70087
:101EF4006F10502F930750046314F7006F10D051E4
:101F0400130C010B9307010D1307C10C9306030077
:101F14001308C10D1306200093050C0013050A00D5
:101F2400232061022328E10B232CE101232CD10B74
:101F3400232AD101232AB10B232E610BEF40D05465
:101F44008327810413077004930C0500832E410139
:101F5400032F8101032301026384E7006F20C00B78
:101F64008327410513F71700630407006F10D04956
:101F74000327C10DB3079741232CF1008327C10C1C
:101F840013077004232AF100832781046394E70074
:101F94006F10901383278104130760046394E70090
:101FA4006F10503E832741019305100493F6FA0FF6
:101FB4001387F7FF832781042326E10C130600000F
:101FC4006398B7009386F60093F6F60F1306100095
:101FD400230AD10C9306B002635A070083274101F8
:101FE400130710009306D0023307F740A30AD10C5D
:101FF4009306900063C4E6006F10905B1308310EE3
:10200400130608001305A000130330066F00C00078
:102014001386050013870600B367A7029305F6FF2E
:1020240093870703A30FF6FEB346A702E342E3FE3A
:10203400138706031377F70F9306E6FFA38FE5FED6
:1020440063E406016F10D07A9305610D6F00800080
:1020540003C706009385150093861600A38FE5FE3B
:10206400E39806FF1307510E9307610D3307C7402A
:102074003387E7009306410DB307D740232CF102C1
:10208400832781018326810313071000338BD70034
:102094006344F7006F10D06683278102330BFB0083
:1020A400832741059349FBFF93D9F94113F9F7BFFE
:1020B40013690910B3793B01232201022320010291
:1020C400232A01008327C105639407006F101007BA
:1020D4001307D002A303E10C130300009389190032
:1020E4006FF0DFB29377090213030C0093690901BF
:1020F4006392071E8327C100938747000327C1000B
:102104002326F100032C0700935DFC4113870D0087
:10211400E350079A330C8041B3378001B30DB041CB
:10212400B38DFD409307D002A303F10C1307F0FF16
:10213400930710006318E3F4130710006388E72083
:10214400130720006382E7249306011B6F008000BD
:1021540093860C009397DD0113777C00135C3C009D
:102164001307070333EC870193DD3D00A38FE6FEDD
:10217400B367BC01938CF6FFE39C07FC13F61900CC
:10218400630E062213060003630AC7229386E6FF42
:102194009307011BA38FCCFE338BD740138909000F
:1021A400938C06006FF08FF00327C100B787FFFF01
:1021B40093C707832314F10C930747002326F100E8
:1021C400973701009387475D13030C002326F10220
:1021D400032C0700930D0000936929009307200046
:1021E400930A80076FF04FE98347710C03CE040014
:1021F400639407CC93070002A303F10C6FF0CFCBD9
:102204009307B002A303F10C03CE04006FF0CFCA0E
:102214008327C10003CE040003A40700938747006B
:102224002326F100635A04C833048040136949002B
:102234006FF08FC81369190003CE04006FF0CFC785
:102244009377090213030C00639C070C8326C100D7
:10225400137709019387460003AC0600E31C079437
:1022640013770904E302076C131C0C01135C0C01C3
:10227400930D00002326F1006F00400C93770902B0
:1022840013030C00639A07068326C1001377090120
:102294009387460003AC0600630407006F10D05414
:1022A40013770904E30E0768131C0C012326F100BD
:1022B400135C0C01930D00009309090093071000AF
:1022C4006FF08FDB0325C101EF2040746FF04FAB3B
:1022D400930909008327C1009387770093F787FF49
:1022E40003A74700938687002326D10003AC070089
:1022F400930D07006FF08FFB930909008327C1003A
:102304009387770093F787FF1387870003AC070051
:1023140083AD47002326E100930710006FF0CFD56B
:102324008327C1009387770093F787FF03AC0700E7
:1023340083AD4700138787002326E1009379F9BF13
:10234400930700006FF04FD393090900E3900D3613
:1023540093079000E3EC8735130C0C03A307811B50
:1023640013890900130B1000930CF11A6FF00FD4AA
:10237400130710006394E7006F10805113072000C7
:1023840093090900E392E7DC8326C102930C011B45
:102394009377FC00B387F60083C707001397CD013A
:1023A400135C4C00938CFCFF336C870193DD4D0070
:1023B4002380FC00B367BC01E39C07FC9307011B6B
:1023C400338B9741138909006FF04FCE9306500663
:1023D40063DA56398326010F9305010A1305010BAD
:1023E4002328D10A8326410F232AE1022320010A4C
:1023F400232AD10A8326810F2322010A2324010AD6
:10240400232CD10A8326C10F2326010A232ED10AA5
:10241400EFF0902C032741036314055A8327810EA0
:10242400973601009386463A130717002320DD00F0
:1024340093871700930610002322DD002326E10E64
:102444002324F10E13077000130D8D00E348F732B7
:102454008327C10C0327810163CAE700937719001E
:10246400639607000327C10E6FF01F8783270103BC
:10247400832681020327C10E2320FD008327810EBA
:102484003387E6002322DD00938717002326E10E1D
:102494002324F10E93067000130D8D00E3CEF60293
:1024A40083278101138BF7FFE35860838327810E11
:1024B400E3D66B2F130C7000832A41006F00C00019
:1024C400130B0BFFE3DC6B2D130707019387170036
:1024D40097360100938686302320DD0023227D0178
:1024E4002326E10E2324F10E130D8D00E35AFCFC88
:1024F4001306410E93850A0013050A00EFB0C013BA
:10250400631005AC0327C10E8327810E130DC11080
:102514006FF01FFB330C3441635480F98326810E22
:1025240063D48B0B232A910293070D0093040C00B0
:10253400138D0C00138C0900930C0B0093090400F9
:10254400930D700003244100130B03006F00C000BF
:10255400938404FF63DA9B04130707019386160030
:10256400173601001306862723A0C70023A277018C
:102574002326E10E2324D10E93878700E3DADDFCC2
:102584001306410E9305040013050A00EFB0C00AB8
:10259400631805A2938404FF0327C10E8326810ECA
:1025A4009307C110E3CA9BFA1384090093090C0032
:1025B400138C04008324410313030B00138B0C00BE
:1025C400930C0D00138D07003307870193861600C3
:1025D40097370100938787202320FD0023228D0154
:1025E4002326E10E2324D10E13067000130D8D0053
:1025F4006358D6EA832541001306410E13050A00E9
:10260400232A6102EFB04003631C059A0327C10E1D
:10261400130DC110032341036FF08FE88326810E4D
:1026240063D88B09232A9102930D700093040C0044
:10263400130C0B00138B09009309040003244100BD
:102644006F00C000938404FF63DA9B04130707013F
:102654009386160097370100938747182320FD00BF
:1026640023227D012326E10E2324D10E130D8D0098
:10267400E3DADDFC1306410E9305040013050A009A
:10268400EFA0907B631E0592938404FF0327C10E81
:102694008326810E130DC110E3CA9BFA138409002B
:1026A40093090B00130B0C00138C040083244103C7
:1026B4003307870193861600973701009387071223
:1026C4002320FD0023228D012326E10E2324D10E95
:1026D40013067000130D8D006358D6DC832541006A
:1026E4001306410E13050A00EFA01075631A058C3A
:1026F4000327C10E130DC1106FF00FDB9375190082
:10270400639205082322DD002326E10E2324610FB2
:102714009307700063CA6759930A2600130D0D01CD
:10272400832681039307410D2320FC003387E600B1
:102734002322DC002326E10E2324510F930770008B
:1027440063DC57D9832541001306410E13050A00A3
:10275400EFA0906E631605860327C10E130DC110FA
:102764006FF08FD70326810E832781019306100013
:1027740023209D0113071700130B1600130C8D0063
:10278400E3DEF6F6930610002322DD002326E10E95
:102794002324610F9306700063CC66618327810252
:1027A40083260103130B1B003307F7002320DC00EF
:1027B4002322FC002326E10E2324610F93067000DC
:1027C400130C8C0063CA66618326010F8327810181
:1027D40013081B002328D10A8326410F9305010AFD
:1027E4001305010B232AD10A8326810F2322E10238
:1027F400930A0800232CD10A8326C10F2320010346
:102804002320010A232ED10A9386F7FF232AD1001D
:102814002322010A2324010A2326010AEFF0C06BB4
:10282400130D8C0083264101032801020327410272
:102834006308053093871C003307D7002320FC006E
:102844002322DC002326E10E2324510F930770007A
:1028540063CC574593070C01930A2B00130C0D000E
:10286400138D07006FF0DFEB930909006FF0DF8C25
:102874008326810E173C0100130C4CF563D00B0D1D
:10288400232491042326210593070D0013090C002A
:10289400138D0C00138C0900930C0B009309040096
:1028A40093027000232AF10383244100130B0300D5
:1028B400130408006F00C000130404FF63DA8B04E0
:1028C400130707019386160023A0270123A277018B
:1028D4002326E10E2324D10E93878700E3DED2FC66
:1028E4001306410E9385040013050A00EFA0D0548B
:1028F400630405006FE0DFEC130404FF0327C10E3B
:102904008326810E9307C11093027000E3CA8BFAE9
:1029140013080400832F41031384090083248104D2
:1029240093090C00130C09000329C10413030B00C1
:10293400138B0C00930C0D00138D07003307070154
:102944009386160023208D0123220D012326E10EF8
:102954002324D10E13067000130D8D006358D6ACDA
:10296400832541001306410E13050A002324610444
:10297400232AF103EFA0504C630405006FE05FE4E9
:102984000327C10E130DC11003238104832F4103B8
:102994006FF0CFA9832541001306410E13050A00E9
:1029A400232A6102EFA05049630405006FE05FE150
:1029B4000327C10E130DC110032341036FF0CFADE4
:1029C4000326C10C635EC042832781018326410133
:1029D400138B070063CCF628635660038326810EAD
:1029E4003307670123209D019386160023226D017E
:1029F4002326E10E2324D10E13067000130D8D003F
:102A0400E342D61E9346FBFF8327410193D6F6414A
:102A1400337BDB00338B674163426033832741019F
:102A240093760940B38AFC00639C067A032BC10C9D
:102A3400832781016346FB0093761900E38A061C11
:102A44008326010383278102130670002320DD00FF
:102A54008326810E3307F7002322FD009386160098
:102A64002326E10E2324D10E130D8D006354D600CA
:102A74006F10C00583268101B387DC00338B664168
:102A8400B3875741130C0B0063D46701138C070001
:102A9400635880038327810E3307870123205D0158
:102AA4009387170023228D012326E10E2324F10EA0
:102AB40093067000130D8D0063D4F6006F10800927
:102AC4009347FCFF93D7F741337CFC00330B8B41D6
:102AD400635460A18327810E63D26B4D130C700085
:102AE400832A41006F00C000130B0BFF63D86B4BAC
:102AF400130707019387170097360100938606CEC4
:102B04002320DD0023227D012326E10E2324F10E60
:102B1400130D8D00E35AFCFC1306410E93850A0045
:102B240013050A00EFA05031630405006FE05FC98C
:102B34000327C10E8327810E130DC1106FF0DFFA36
:102B4400E350D0BE63C4DB006F104047930A7000AB
:102B5400138D0600832C4100130B08006F00000145
:102B6400130D0DFF63DAAB11130B1B0013070701E1
:102B740097370100938787C62320FC0023227C011A
:102B84002326E10E2324610F130C8C00E3DA6AFD83
:102B94001306410E93850C0013050A00EFA0D029FB
:102BA400630405006FE0DFC10327C10E032B810E10
:102BB400130CC1106FF0DFFA93070003A307F11A97
:102BC400930CF11A6FE09FCE93770920E39C070AD8
:102BD400930D00006FE09FC88327C10003A707007F
:102BE400938747002326F100832507000326470027
:102BF400832687000327C7002328B10E232AC10E8A
:102C0400232CD10E232EE10E6FF0CFA493070003E3
:102C1400136929002304F10CA304510D9379F9BF1E
:102C2400930720006FE05FC50326810083A7060099
:102C34002326E1009356F64123A0C70023A2D70020
:102C4400938C04006FE01FDD8327C10303CE0400CF
:102C5400639407006FE05FA683C7070063940700CF
:102C64006FE09FA5136909406FE01FA5138B060051
:102C7400E34660D76FF01FD993060D00930A1B003B
:102C840093078C003307D70017360100130606B5E7
:102C94002322DC002320CC002326E10E2324510F21
:102CA4009306700063DE566F832541001306410EC0
:102CB40013050A00EFA05018630405006FE05FB02D
:102CC4000326810E0327C10E130D4111930A16002A
:102CD400130CC1106FF0DFA4832541001306410ECD
:102CE40013050A00EFA05015630405006FE05FAD03
:102CF4000327C10E130DC1106FF08FFA03CE140019
:102D040013690920938414006FE01F9B03CE140001
:102D140013690902938414006FE01F9A93076000FB
:102D2400130B030063E2676E93090B0023268101F2
:102D3400973C0100938CCCA86FE01FEC8326810E96
:102D440063D86B45930A7000032C41006F00C000E8
:102D5400130B0BFF63DE6B43130707019386160007
:102D640097370100938787A72320FD0023227D0145
:102D74002326E10E2324D10E130D8D00E3DADAFCB1
:102D84001306410E93050C0013050A00EFA0D00AA8
:102D9400630405006FE0DFA20327C10E8326810EC2
:102DA400130DC1106FF0DFFA13890C006FE09F8ED2
:102DB400832541001306410E13050A00EFA0D00736
:102DC400630405006FE0DF9F0327C10E032B810E10
:102DD400130CC1106FF09F9C832541001306410E14
:102DE40013050A00EFA05005630405006FE05F9D22
:102DF4000327C10E032B810E130CC1106FF0DF9C4F
:102E04008326810E973501009385059C2320BD0000
:102E14001307170093051000938616002322BD00A4
:102E24002326E10E2324D10E93057000130D8D008B
:102E340063C0D558631E0620832781019376190049
:102E4400B3E6F600639406006FE01FE983260103EE
:102E540083278102130670002320DD008326810E60
:102E64003387E7002322FD00938616002326E10E14
:102E74002324D10E93088D006340D66283278101F9
:102E84009386160023A098013387E70023A2F80055
:102E94002326E10E2324D10E93077000138D88009E
:102EA40063C4D7006FE05FE36FF0DF89930C011B0D
:102EB4009307000013F9094023289100232A3101C4
:102EC400130BF00F93890C0023206102930C0A006A
:102ED4008324C103138A0D00930D0D00130D040008
:102EE400138407006F0040021306A000930600003D
:102EF40013050C0093050A00EFD01011E30E0A2C01
:102F0400130C0500138A05001306A00093060000A5
:102F140013050C0093050A00EFD01059130505039F
:102F2400A38FA9FE130414009389F9FFE30E09FA91
:102F340083C60400E31AD4FAE30864FBE31E0A24FC
:102F440093079000E3EA8725138A0C00938C090009
:102F5400832941019307011B232C8100232E910215
:102F640013040D000323010283240101138D0D00BA
:102F7400338B9741138909006FE05F9383254100E8
:102F84001306410E13050A00EFA0006B630405004D
:102F94006FE01F83130DC1106FF08FCB97360100C4
:102FA4009386C68333076701938717002320DD00C8
:102FB4006FE01FD18327010F9305010A1305010B4D
:102FC4002328F10A8327410F2320010A2322010A1F
:102FD400232AF10A8327810F2324010A2326010AC5
:102FE400232CF10A8327C10F232EF10AEFF0C0121C
:102FF400E346052C0347710C93067004972C0100DB
:10300400938C8C7863CA563D232801002322010245
:1030140023200102232A01001379F9F793093000D0
:10302400130B300013030000630407006FE05F8A92
:103034006FE0DFBD8327C100938C040083A70700E2
:103044002326E1000327810023A0E7006FE09F9C73
:103054008326010383278102930570002320DD006A
:103064008326810E3387E7002322FD009386160012
:103074002326E10E2324D10E93088D0063CED54080
:10308400E35E06DE930500FF330BC040E354B63223
:10309400130C7000832A41006F00C000130B0BFF58
:1030A400E3DA6B31130707019386160097270100B3
:1030B4009387C77223A0F80023A278012326E10E88
:1030C4002324D10E93888800E35ADCFC1306410EB6
:1030D40093850A0013050A00EFA000566304050057
:1030E4006FE00FEE0327C10E8326810E9308C110F3
:1030F4006FF0DFFA13850C00EFE0CFB7130B050078
:103104006FE0DFA613770920630007360327C100A9
:10311400930909002326F100030C0700935DFC4189
:1031240013870D006FE09F98137709206308073217
:10313400137CFC0F930D00002326F1006FF00FA009
:1031440013770920630207302326F100137CFC0F58
:10315400930D000093090900930710006FE0CFF16D
:103164008327C10F63D607329307D002A303F10C60
:103174001307D00293067004972C0100938C4C61C2
:10318400E3D456E9972C0100938CCC606FF0DFE711
:103194003307670193861600972701009387076416
:1031A4002320FD0023226D012326E10E2324D10ECA
:1031B40013067000130D8D00E352D686832541005B
:1031C4001306410E13050A00EFA00047630405002F
:1031D4006FE00FDF0327C10E130DC1106FF01F84C2
:1031E40083278101032C0102232A9100232A21032E
:1031F40023248104832441022320310323229103C5
:10320400B38DFC00130B7000032901040324C103D4
:1032140093060D0083294100832C410463080C08A4
:10322400639804081304F4FF130CFCFF8327810E36
:103234003307270123A096019387170023A22601B1
:103244002326E10E2324F10E938686006344FB10AB
:1032540003460400B3855D41130D060063D4C50025
:10326400138D05006356A0030326810E3307A701BF
:1032740023A056011306160023A2A6012326E10E5D
:103284002324C10E634ACB0E0346040093868600B2
:103294009345FDFF93D5F541B377BD00330DF6405B
:1032A400634CA001B38ACA00E31C0CF66386045E77
:1032B4009384F4FF6FF09FF70326810E63C8AB017C
:1032C4006F000006130D0DFF63DCAB051307070148
:1032D40013061600972701009387475023A0F60092
:1032E40023A276012326E10E2324C10E93868600B1
:1032F400E35ACBFC1306410E9385090013050A001B
:10330400EFA08033630405006FE08FCB130D0DFF36
:103314000327C10E0326810E9306C110E3C8ABFB3D
:103324003307A70113061600972701009387074B5D
:1033340023A0F60023A2A6012326E10E2324C10E16
:103344006346CB620346040093868600B38ACA00B0
:103354006FF09FF51306410E9385090013050A00CB
:10336400EFA0802D630405006FE08FC50327C10E15
:103374009306C1106FF0DFED1306410E938509002B
:1033840013050A00EFA0402B630405006FE04FC350
:10339400034604000327C10E9306C1106FF05FEFCC
:1033A400938A1A00138D8700138C07006FF04FB7B0
:1033B400832541001306410E13050A00EFA0C02720
:1033C400630405006FE0CFBF0326C10C0327C10EC1
:1033D400130DC1106FF01FA6972C0100938C0C3BAA
:1033E4006FF09FC2832541001306410E13050A00A6
:1033F400EFA08024630405006FE08FBC0327C10E97
:10340400130DC1106FF00FE0130B60006FF0DF912C
:1034140083268101B387DC00338B6641338C5741AB
:1034240063508BEB130C0B006FF08FE98327C10003
:103434002326E1000327810083A70700938C04005F
:103444002390E7006FE00FDD2326F100930D0000C9
:1034540093090900930710006FE00FC2930D000059
:103464002326F1006FE09FED0327C10093090900B3
:103474002326F100032C0700935DFC4113870D0004
:103484006FE0CFE2137CFC0F930D00006FE00FBDE3
:103494000347710C6FF01FCE832541001306410EC4
:1034A40013050A00EFA04019630405006FE04FB153
:1034B4000326C10C0327C10E8326810E9308C11075
:1034C400E35E069A6FF01FBC930700032304F10C1C
:1034D40093078005A304F10C9367290013073006B2
:1034E400232AF10423280100930CC1146340677A52
:1034F400032BC10F93F7FAFD2324F104232E0104B7
:1035040013692910032F010F832D410F832E810F7F
:1035140063440B4413071006E38EEA0C13071004EC
:103524006384EA006FE01F9C130C010B13050C006D
:10353400232A61022328E10B232CD10B232E610BB8
:10354400232AB10BEF10D1171306C10CEF60507F83
:10355400138605009305050013050C00EF10816F19
:103564000327010B930701099309010A2328E108A2
:103574000327410B1306010893850700232AE1085A
:103584000327810B13850900138B0700232CE10803
:103594000327C10B2326C104232C3105232EE10864
:1035A4003707FC3F2326E1082320010823220108D2
:1035B40023240108EFE0904D0327010A8326410AE2
:1035C4000328810A832EC10A9385090013050C0080
:1035D4002328E10A2322E102232AD10A2320D1024B
:1035E400232C010B232C0101232ED10B232AD101DF
:1035F4002320010A2322010A2324010A2326010A83
:10360400EFE0900D832E41010328810183260102FE
:103614000327410203234103631605001306100028
:103624002326C10C9727010093874718232AF10208
:10363400930DF3FF232A910123209106232251079E
:1036440023268106232AA107232C4107232E910731
:1036540023242107938C0D0023286106130D0700F2
:10366400938D0600130A0800938A0E0093040B003E
:10367400032481056F0040059305040013050C0025
:103684002322C1022320E103232CF101232AF10B7D
:10369400232CE10B232EC10A2328210B2320010A0A
:1036A4002322010A2324010A2326010AEFE0D0027F
:1036B400938CFCFF832F8101032F01020326410217
:1036C4006304050E232A6101B7070340138604002F
:1036D4009305040013050C00232EF1082320A10BED
:1036E4002322B10B2324410B2326510B2328010849
:1036F400232A0108232C0108EFE0503913050C009C
:10370400EF10C125930505009309050013050C006E
:10371400032BC10B832A010B032A410B0329810BC1
:10372400EF1081380327010B0326C104938504009D
:103734002320E1080327410B13050400232E61090C
:103744002322E1080327810B23285109232A410955
:103754002324E1080327C10B232C21092326E10894
:10376400EFF05048832741030329010A832F410ABC
:10377400338737018327410103470700032F810A59
:103784000326C10A138B1700A30FEBFE2328910510
:103794009307F0FF130D0900938D0F00130A0F0018
:1037A400930A0600E39AFCEC0323010783258105B1
:1037B40093020900B70DFE3F13050C00232C610092
:1037C400832401062328510A23205106232AF10BBE
:1037D4002326F105232CE10B2322E103232EC10A26
:1037E4002320C1022320010A2322010A2324010ADF
:1037F4002326B10BEFE0407B832A41060324C10654
:10380400032D4107032A8107832CC107032981065D
:1038140003238101634EA04883220106832FC10440
:10382400032F4102032601028325810513050C00A1
:103834002328510A232AF10B232CE10B232EC10A3E
:103844002320010A2322010A2324010A2326B10B7F
:10385400EFE08068032381016316050093F91900E2
:10386400639809448327010593060003138717000F
:103874003307EB0063C80700130B1B00A30FDBFE29
:10388400E31C67FFB3079B41232CF1006FE00FEFAC
:10389400930909006FE05FAC832C41028327810107
:1038A400232E8102138D0600B386FC00832441017C
:1038B40003294103032481048329010263F85697F1
:1038C400938A06006FF08F96832741011307D0FF78
:1038D40063C4E700635AF300938AEAFF93F7FAFD9F
:1038E4002324F1046FE00FEC0327810183274101B6
:1038F40063C8E72203274105138B070013771700DA
:103904006306070003278102338BE7008327410501
:1039140013F7074063060700832741016346F0401D
:103924009349FBFF93D9F941B3793B01930A70069C
:1039340023220102232001026FE0CFF80347710C18
:1039440013030000630407006FD09FF86FE00FAC0F
:103954002328010013090700370700809307D002CA
:10396400334B6701232EF1046FF0DFBA1306410EC7
:103974009385090013050A00EF90104C63040500B9
:103984006FD01FE4034604000327C10E9306C11041
:10399400B38ACA006FF05F91832701048325410431
:1039A40013040000B389F940138607001385090046
:1039B400EF70000003C814001306A0009306000073
:1039C4003338000113050C0093050A00B384040185
:1039D400EFC090636FF0CFD29307900063E287D378
:1039E4006FF08FD6130C010B930603001307C10C61
:1039F4001308C10D9307010D1306300093050C0045
:103A040013050A00232061022328E10B232CE10182
:103A1400232CD10B232AD101232AB10B232E610B92
:103A2400EF3080268346050013070003930C05003E
:103A3400832E4101032F810103230102638CE64C91
:103A44009307010A232CF1040327C10CB30967006F
:103A5400B3893C018325810513050C00232A6100E9
:103A64002328E10B232AB10B232CD10B232E610B2A
:103A74002320010A2322010A2324010A2326010AFE
:103A8400EFE0804513870900032341016314050017
:103A94006FE04FCE0327C10D1306000363643701A3
:103AA4006FE04FCD93071700232EF10C2300C700BE
:103AB4000327C10DE36837FF6FE0CFCB9307D00234
:103AC400A303F10C1307D0026FF00FD38325410039
:103AD4001306410E13050A00EF9010366304050027
:103AE4006FD01FCE032BC10C0327C10E130DC110C1
:103AF4006FE05FF80347710C232681012322010242
:103B040023200102232A010093090300130B03005D
:103B140013030000630407006FD09FDB6FE00F8F77
:103B24008327810103278102930A7006338BE70000
:103B340083274101635EF0428327410513F7074061
:103B44006316071E9349FBFF93D9F941B3793B01EF
:103B54006FF01FDE832541001306410E13050A0092
:103B6400EF90902D630405006FD09FC5032BC10C0B
:103B7400832781010327C10E130DC110338B6741C5
:103B84006FE01FF48327410513F7170083274101D2
:103B940033676700635AF03E63140724032B410123
:103BA400930A60066FF05FF99307F0FF2324F10096
:103BB4006FD09FC3330767019386160097270100D0
:103BC4009387C7C123A0F80023A268012326E10E2E
:103BD4002324D10E13067000938888006350D6AA5C
:103BE400832541001306410E13050A00EF90D024EB
:103BF400630405006FD0DFBC0327C10E8326810E4A
:103C04009308C1106FF08FA79307010AB3896C0062
:103C1400232CF1046FF01FE493091300130C010B20
:103C24001308C10D9307010D1307C10C93860900F6
:103C34001306200093050C0013050A0023206102DB
:103C44002328E10B232CE101232CD10B232AD101BE
:103C5400232AB10B232E610BEF300003832E410185
:103C6400032F810103230102930C05009307010A2A
:103C7400B3893C01232CF1046FF0DFDD93070003CB
:103C84002304F10C930780076FF0DF84930513007E
:103C940013050A0023286100EF40405F930C0500E0
:103CA40003230101630C05342328A1006FF05F8412
:103CB4008327410113070B00232EF10C83274103B3
:103CC4008346FBFF03C6F7006310D6029305000387
:103CD400A30FB7FE0327C10D9307F7FF232EF10CA3
:103CE4008346F7FFE306D6FE13861600930590037A
:103CF4001376F60F6386B600A30FC7FE6FF09FB866
:103D04008327410303C6A700A30FC7FE6FF09FB725
:103D1400630403006FE04F9A130310006FE0CF9920
:103D2400130360006FE04F99930A70068325C10363
:103D3400832741012322010203C705002320010236
:103D44001306F00F630EC702635CF70283C6150007
:103D5400B387E740638E06000327010293851500AD
:103D6400130717002320E102138706006FF09FFD5D
:103D740083264102938616002322D1026FF09FFC12
:103D8400232AF1000327410283270102232EB102D3
:103D94003387E700832701043307F702330B6701F6
:103DA4009349FBFF93D9F941B3793B016FE08FB19C
:103DB4009306610D6318060093060003230BD10CD0
:103DC4009306710D9307011B3386F640130707030F
:103DD4009307D60D2380E600232CF1026FE04FAA4F
:103DE40003278102930A6006338BE700330B6B00D1
:103DF4006FF09FD4130C010B13050C00232A6102EE
:103E04002328E10B232CD10B232E610B232AB10B86
:103E1400EF10010B1306C10CEF60807213860500CE
:103E24009305050013050C00EF00D1620327010B75
:103E3400930701099309010A2328E1080327410B89
:103E44001306010893850700232AE1080327810B41
:103E540013850900138B0700232CE1080327C10BEA
:103E64002326C104232C3105232EE1083707FC3F08
:103E74002326E10823200108232201082324010822
:103E8400EFE0C0400327010A8326410A0328810A80
:103E9400832EC10A9385090013050C002328E10A27
:103EA4002322E102232AD10A2320D102232C010B4D
:103EB400232C0101232ED10B232AD1012320010A13
:103EC4002322010A2324010A2326010AEFE0C00069
:103ED400832E410103288101832601020327410225
:103EE4000323410363160500130610002326C10CA7
:103EF400972701009387478A232AF1026FF04FF333
:103F04008327410513F71700631407006FE04F99E7
:103F14006FE08F989305010A13050C0023206102BA
:103F24002328E10B232CE101232CD10B232AD101DB
:103F3400232CB104232AB10B232E610B2320010A65
:103F44002322010A2324010A2326010AEFD0D07870
:103F5400832E4101032F810103230102E30605AEF1
:103F640013071000330767402326E10C6FF01FAEE0
:103F7400330BFB40130B1B009349FBFF93D9F9410F
:103F8400B3793B016FF0DF9A631A070093091000BD
:103F9400930A6006130B10006FF09F998327810228
:103FA400930A6006138B1700330B6B009349FBFFD6
:103FB40093D9F941B3793B016FF09F9793070D00B3
:103FC4006FE05FCC0327C100032C070013074700F1
:103FD40063540C00130CF0FF03CE14002326E100FD
:103FE400938407006FD04FED930909006FD05FB140
:103FF40093072000232CF1026FE08F8803274100F0
:104004008357C70093E707042316F7006FD08FFC8C
:10401400930909006FE08F8E930903006FF01FC5A9
:104024009387018193060600138605009305050016
:1040340003A507006FD0CFCC83D7C50003AE4506D8
:1040440003D3E50083A8C50103A84502130101B801
:1040540093F7D7FF13070040232C8146231AF1005E
:10406400138405009307010793058100232A9146D1
:1040740023282147232E1146130905002326C107AF
:10408400231B610023221103232601032324F100AF
:10409400232CF1002328E100232EE1002320010238
:1040A400EFD00FC693040500635C050283574101FA
:1040B40093F70704638807008357C40093E7070452
:1040C4002316F4008320C147032481471385040089
:1040D40003290147832441471301014867800000F5
:1040E4009305810013050900EF00C056E30005FCA9
:1040F4009304F0FF6FF09FFB130101FE232C81005A
:10410400232A910023282101232E11002326310183
:1041140013090500938405001304060063060500D3
:1041240083278503638807140317C4008327840146
:104134009316070193D606012324F40093F786000F
:104144006382070883270401638E070613962601FA
:1041540093F9F40F93F4F40F635E06080327040045
:1041640083264401B307F74063DED70A832684001D
:10417400130617002320C4009386F6FF2324D400DB
:104184002300370103274401938717006308F70CC2
:104194008357C40093F71700638607009307A000B2
:1041A400638EF40A8320C101032481011385040072
:1041B40003290101832441018329C1001301010260
:1041C400678000009305040013050900EF00400C0C
:1041D400631E05080317C40093F9F40F8327040131
:1041E4009316070193D606011396260193F4F40F50
:1041F400E34606F683264406372600003367C700E5
:1042040037E6FFFF1306F6FFB3F6C6002316E400F5
:10421400032704002322D40683264401B307F7406E
:10422400E3C6D7F49305040013050900EF008042A8
:10423400631E0502032704008326840093071000ED
:10424400130617009386F6FF2320C4002324D4000A
:104254002300370103274401E31CF7F2930504000C
:1042640013050900EF00003FE30E05F29304F0FF8D
:104274006FF05FF3EF0080796FF01FEB938701819C
:10428400138605009305050003A507006FF0DFE61C
:104294009387018183A70700130101FF2324810071
:1042A40023229100232611009304050013840500A2
:1042B4006386070003A78703630607080317C40080
:1042C4009317070193D7070193F68700638A0608BB
:1042D40083260401638A060A13F71700630807029A
:1042E400832744012324040013050000B307F0408E
:1042F400232CF400638A06028320C1000324810076
:1043040083244100130101016780000093F7270013
:104314001307000063940700032744012324E400E7
:1043240013050000E39A06FC8317C40013F707087B
:10433400E30407FC93E707042316F4001305F0FFD6
:104344006FF09FFB13850700EF00406C0317C40058
:104354009317070193D7070193F68700E39A06F6AC
:1043640093F60701638E060693F7470063900704EC
:1043740083260401936787002316F40093970701AB
:1043840093D70701E39A06F413F7072813060020CE
:10439400E304C7F49305040013850400EF30105DB3
:1043A4008357C400832604016FF01FF3832504039D
:1043B400638E0500930704046388F50013850400E5
:1043C400EF00007C0317C4002328040283260401A1
:1043D4001377B7FD232204002320D4006FF09FF944
:1043E4009307900023A0F400136707042316E40046
:1043F4001305F0FF6FF05FF08397C500130101FE12
:10440400232C810013970701135707012326310139
:10441400232E1100232A910023282101937687005B
:104424001384050093090500639A061037170000EA
:104434001307078083A64500B3E7E7002396F5003A
:104444006350D01803278402630A070C939707016B
:1044540093D7070183A409009396370123A0090089
:104464008325C40163C406169306100013060000D6
:1044740013850900E70007009307F0FF6308F518A8
:104484008357C400032784028325C40193F747009C
:10449400638E070083264400832704033305D54035
:1044A400638607008327C4033305F540130605001C
:1044B4009306000013850900E70007009307F0FF47
:1044C400631AF51003A709008317C40063040716D1
:1044D4009306D0016306D700930660016310D70CDE
:1044E4008326040137F7FFFF1307F77FB3F7E700CD
:1044F4002316F400232204002320D400832504037C
:1045040023A09900638C0500930704046386F500D7
:1045140013850900EF00C066232804021305000078
:104524008320C10103248101832441010329010162
:104534008329C100130101026780000003A905015A
:10454400E30E09FC83A405001377370023A025019B
:10455400B3842441930700006314070083A7450133
:104564002324F400634890006FF05FFB3309A90033
:10457400E35690FA832744028325C40193860400FA
:104584001306090013850900E7800700B384A440DB
:10459400E34EA0FC8357C4001305F0FF93E7070420
:1045A4002316F4008320C1010324810183244101E3
:1045B400032901018329C10013010102678000005E
:1045C40003A7C503E340E0E86FF05FF503250405A6
:1045D4006FF0DFEB8357C40037F7FFFF1307F77F54
:1045E400B3F7E700832604019397070193D70741A4
:1045F4002316F400232204002320D4001397370148
:10460400E35E07EE2328A4046FF05FEF83A709009D
:10461400E38807E61307D0016388E7021307600104
:104624006384E7028357C40093E707042316F40066
:104634006FF01FEF37F7FFFF1307F77F832604019F
:10464400B3F7E7006FF0DFFA23A099001305000029
:104654006FF01FED130101FE232C8100232E1100A6
:10466400130405006306050083278503638007029E
:104674008397C500639607028320C1010324810147
:104684001305000013010102678000002326B10016
:10469400EF00C0378325C1008397C500E38E07FC74
:1046A40013050400032481018320C10113010102C5
:1046B4006FF09FD49305050063080500938701817B
:1046C40003A507006FF01FF9971701009387C7C070
:1046D40003A5070097050000938505F86F00D051E6
:1046E400130500006780000097A500009385454BE3
:1046F4006F009050130101FE232E1100232C810022
:10470400232A910023282101232631012324410156
:1047140023225101232061010324450017070000CF
:104724001307C7FC232EE5029307C52E1307300099
:104734002322E52E2324F52E2320052E9307400063
:10474400130905002326F4001306800093050000D6
:10475400232204062320040023220400232404002B
:1047640023280400232A0400232C04001305C40571
:10477400EF40406B83248900176B0000130B0BF68A
:10478400976A0000938ACAFB176A0000130ACA03D7
:10479400976900009389C909B707010023206403BE
:1047A400232254032324440323263403232E840086
:1047B4009387970023A6F400130680009305000056
:1047C40023A2040623A0040023A2040023A40400BB
:1047D40023A8040023AA040023AC04001385C40501
:1047E400EF4040640324C900B707020023A0640318
:1047F40023A2540323A4440323A6340323AE940026
:10480400938727012326F40023220406232004008F
:10481400232204002324040023280400232A040060
:10482400232C04001305C40513068000930500001F
:10483400EF40405F8320C1012320640323225403FB
:104844002324440323263403232E840003248101D8
:1048540093071000232CF902832441010329010149
:104864008329C100032A8100832A4100032B01000C
:104874001301010267800000130500006780000037
:10488400130101FF23229100130680069384F5FF90
:10489400B384C40223202101138905002324810049
:1048A4002326110093854407EF30501E130405009E
:1048B400630005021305C5002320040023222401FC
:1048C4002324A4001386840693050000EF4080553A
:1048D400130504008320C1000324810083244100C4
:1048E400032901001301010167800000130101FE87
:1048F400971701009387479E2328210103A90700E6
:1049040023263101232E110083278903232C8100C0
:10491400232A9100930905006386070A1309092EC7
:104924009304F0FF83274900032489009387F7FF4A
:1049340063DA07006F0000089387F7FF1304840607
:10494400638A97060317C400E31807FEB707FFFF3F
:104954009387170023220406232004002322040043
:10496400232404002326F40023280400232A04001B
:10497400232C040013068000930500001305C405CE
:10498400EF40404A23280402232A04022322040479
:1049940023240404130504008320C101032481019A
:1049A40083244101032901018329C1001301010268
:1049B4006780000003240900630C04001309040049
:1049C4006FF05FF613050900EFF0DFD26FF01FF50B
:1049D4009305400013850900EFF09FEA2320A90006
:1049E40013040500E31C05FC9307C00023A0F90091
:1049F4006FF05FFA971701009387078E03A50700EE
:104A040097A500009385C5196F00101F83278503A0
:104A140063840700678000006FF0DFCD67800000CB
:104A24006780000067800000678000009387018131
:104A340003A50700970500009385C5CA6F00D01031
:104A44009387018103A5070097050000938505E37B
:104A54006F00900F130101FE232C8100232A910083
:104A6400232821012326310113840500232E11005C
:104A740097290100938909E413090500EF40404890
:104A840083A68900371700009307F7FE83A4460026
:104A94003384874093F4C4FF330494001354C40054
:104AA4001304F4FF1314C400634EE40093050000E0
:104AB40013050900EF50902383A78900B38797005B
:104AC4006306F50213050900EF40C0438320C101CA
:104AD4000324810183244101032901018329C100A5
:104AE400130500001301010267800000B305804034
:104AF40013050900EF50901F9307F0FF6306F504B8
:104B04009387018483A7070003A78900B3848440A3
:104B140093E414003384874013050900232297008B
:104B240023A08184EF40003E8320C101032481013E
:104B340083244101032901018329C10013051000C5
:104B440013010102678000009305000013050900AA
:104B5400EF50D01903A789009306F000B307E5408E
:104B6400E3D2F6F69386418183A6060093E7170005
:104B74002322F7003305D54023A0A1846FF09FF4CE
:104B8400638E0512130101FF232481002322910067
:104B9400138405009304050023261100EF404036DA
:104BA4008325C4FF130784FF17250100130585D04F
:104BB40093F7E5FF3306F7008326460003288500B4
:104BC40093F6C6FF6304C81A2322D60093F5150092
:104BD4003308D6006394050A032384FF8325480021
:104BE40097280100938888CD3307674003288700FE
:104BF400B387670093F51500630418150323C700F2
:104C040023266800232403016380051E93E617000E
:104C14002322D7002320F6009306F01F63ECF60A44
:104C240093D7370093861700939636008325450063
:104C34003305D5000326050093D6274093071000BB
:104C4400B397D700B3E7B700930685FF2326D700B1
:104C54002324C7009726010023A0F6C62320E500DD
:104C64002326E600032481008320C1001385040069
:104C740083244100130101016F40C02883254800AB
:104C840093F51500639E0502B387D70097280100AA
:104C94009388C8C28326860013E81700B305F7007B
:104CA400638016170326C60023A6C6002324D60055
:104CB4002322070123A0F5006FF01FF66780000090
:104CC40093E61700232ED4FE2320F6009306F01F4C
:104CD400E3F8F6F493D69700130640006364D60E07
:104CE40093D66700938596031386860393953500C0
:104CF400B305B50083A60500938585FF6384D512AB
:104D040003A646001376C6FF63F6C70083A6860093
:104D1400E398D5FE83A5C6002326B7002324D70035
:104D24000324810023A4E5008320C100138504002B
:104D34008324410023A6E600130101016F40801C77
:104D440063940514832586000326C600B387F60002
:104D540093E6170023A6C5002324B6002322D70018
:104D64003307F7002320F7006FF0DFEF93F515000A
:104D7400B387D70063900502832584FF3307B740C8
:104D84008326C70003268700B387B7002326D600EF
:104D940023A4C6009386818113E6170083A6060028
:104DA4002322C70017260100232AE6B0E3ECD7EA42
:104DB4009387818383A5070013850400EFF09FC9BF
:104DC4006FF05FEA130640016374D60213064005D0
:104DD400636AD60693D6C7009385F6061386E6065D
:104DE400939535006FF0DFF0B387D7006FF09FEA3B
:104DF4009385C6051386B605939535006FF05FEF6E
:104E04009726010023A2E6AC9726010023ACE6AA6C
:104E140023261701232417012322070123A0F500C9
:104E24006FF05FE4032545009307100013562640F6
:104E34003396C7003366A6009727010023AEC7A6A2
:104E44006FF09FED13064015636CD60093D6F70000
:104E54009385860713867607939535006FF05FE98F
:104E640013064055636CD60093D627019385D60765
:104E74001386C607939535006FF09FE79305803F2F
:104E84001306E0076FF0DFE693E617002322D7004E
:104E94002320F6006FF01FDD83278600638207342A
:104EA40083D7C500130101FD23248102232C410172
:104EB400232A5101232611022322910223202103B4
:104EC400232E31012328610123267101232481012A
:104ED400232291012320A10113F7870013840500E5
:104EE400930A0500130A0600630A070803A70501CD
:104EF4006306070813F7270083240A006300070AE0
:104F0400032744028327C401370B00809309000060
:104F140013090000134B0BC0138609009385070087
:104F240013850A00630409049306090063742B01C2
:104F340093060B00E7000700635AA02883278A0022
:104F4400B389A9003309A9403385A7402324AA00C3
:104F5400630C05208327C401032744021386090038
:104F64009385070013850A00E31009FC83A9040054
:104F740003A94400938484006FF01FFA930504008E
:104F840013850A00EFF0CFB0631C053A8357C400C1
:104F940083240A0013F72700E31407F613F7170016
:104FA40063140724832C840003250400B70B0080BA
:104FB40013CCEBFF130B00001309000093CBFBFF92
:104FC400630E090E13F70720630C0724138D0C00DE
:104FD4006362992F13F70748630A0708832644017D
:104FE400832504011307190093991600B386D90089
:104FF40093D9F601B30CB540B389D90093D91940BC
:10500400330797011386090063F6E9009309070043
:105014001306070093F707406384072E93050600E1
:1050240013850A00EF308026130D05006302053056
:105034008325040113860C00EF30103B8357C40012
:1050440093F7F7B793E707082316F40033059D0198
:10505400B38799412328A4012320A400232A3401DF
:10506400930C09002324F400130D090013060D000A
:1050740093050B00EF3010498327840003260400B6
:1050840093090900B38C97413306A60123249401A4
:105094002320C4001309000083278A00330B3B013B
:1050A400B389374123243A016380090C832C84009B
:1050B400032504008357C400E31609F003AB04007E
:1050C40003A94400938484006FF09FEF83A94400F4
:1050D40083AB040093848400E38A09FE13860900E9
:1050E4009305A00013850B00EF30502263040512D2
:1050F40013051500330B754193070B00138C09003E
:1051040063F43701138C070003250400832704018B
:105114008326440163F8A700032984003389260108
:10512400634289096348DC1A832744028325C40146
:1051340013860B0013850A00E78007001309050096
:105144006356A008330B2B4113051000630A0B169A
:1051540083278A00B38B2B01B389294133892741E3
:1051640023242A01631A0908130500008320C102BD
:105174000324810283244102032901028329C101FA
:10518400032A8101832A4101032B0101832BC100DE
:10519400032C8100832C4100032D01001301010322
:1051A4006780000093850B0013060900EF309035EB
:1051B400832704009305040013850A00B38727019D
:1051C4002320F400EFF00FC9E30E05F68317C400A3
:1051D40093E707042316F4001305F0FF6FF01FF99B
:1051E4001305000067800000130B00001305000086
:1051F400930B000093090000E38A09ECE31E05EE1B
:10520400138609009305A00013850B00EF301010DE
:10521400E31005EE93871900138B07006FF01FEE60
:105224008327040163E2A70483274401636EF90220
:105234009306090063742C0193860B00B3C6F6022F
:10524400032744028325C40113060B0013850A00B7
:10525400B386F602E7000700E35AA0F693090500B7
:10526400330939416FF05FE393890C00637499014A
:10527400930909001386090093050B00EF30902869
:105284008327840003270400B3873741330737019A
:105294002324F4002320E400E39407FC9305040092
:1052A40013850A00EFF00FBBE31205F2330939410D
:1052B4006FF09FDE930C0900130D09006FF01FDBE4
:1052C4009305040013850A00EFF0CFB8E30205E864
:1052D4006FF0DFEF13060C0093850B00EF30902284
:1052E400032784008327040013090C003307874134
:1052F400338C87012324E400232084016FF09FE48E
:1053040013850A00EF40D040130D0500E31005D4C7
:105314008325040113850A00EFF09F868317C400D8
:105324001307C00023A0EA0093F7F7F76FF05FEAD2
:105334009307C00023A0FA008317C4006FF05FE94D
:105344001305F0FF6FF09FE2130101FE23225101C8
:10535400232E1100232C8100232A910023282101CC
:10536400232631012324410123206101930A052EC0
:1053740063800A08138B0500130A000093091000C8
:105384001309F0FF83A44A0003A48A009384F4FF62
:1053940063C604028357C4009384F4FF63FCF900DA
:1053A4008317E4001305040063862701E7000B005C
:1053B400336AAA0013048406E39E24FD83AA0A0028
:1053C400E3920AFC8320C1010324810113050A002E
:1053D40083244101032901018329C100032A810097
:1053E400832A4100032B010013010102678000009E
:1053F400130A00006FF01FFD130101FD232A510160
:105404002326110223248102232291022320210333
:10541400232E3101232C410123286101232671010C
:10542400930A052E63860A08938B0500130B050067
:10543400130A0000930910001309F0FF83A44A0023
:1054440003A48A009384F4FF63C804028357C4004E
:105454009384F4FF63FEF9008317E40093050400CA
:1054640013050B0063862701E7800B00336AAA004B
:1054740013048406E39C24FD83AA0A00E3900AFC37
:105484008320C1020324810213050A0083244102FC
:10549400032901028329C101032A8101832A4101CD
:1054A400032B0101832BC10013010103678000005A
:1054B400130A00006FF0DFFC930645009307000019
:1054C4001305A5013788FFFF6F00C00193971700EC
:1054D4002390E600939707019386260093D707014C
:1054E400630ED50203D70600137617006304060083
:1054F40093E717001357170013F62700B365070146
:10550400E30606FC939717002390B60093970701D0
:105514009386260093D70701E316D5FC6780000025
:105524009306850113070000130525006F00C001D1
:10553400131717002390F600131707019386E6FF4D
:10554400135707016304D50483D706001396070194
:105554001356064193971700635406001367170008
:105564009397070193D707011376270093E5170054
:10557400E30006FC131717002390B6001317070166
:105584009386E6FF13570701E310D5FC67800000FC
:10559400130101FE370E0100231D0100231E01002B
:1055A400938585019307C10113088100130EFEFF43
:1055B40003D705009387E7FF9385E5FF6318070288
:1055C400239F07FEE39607FF130646009306E101B7
:1055D40003D707001306260093872700231FE6FE40
:1055E400E398D7FE13010102678000003307A70286
:1055F40083D8270003D30700B376C701B386160107
:105604001357070193D806013307670033071701BF
:10561400935807012391D7002390E700239F17FF96
:10562400E39807F96FF05FFA1307250113052500C6
:105634008357E5FF63980700E31AA7FE13050000EC
:10564400678000001305100067800000130101FF4C
:1056540023248100035425012322910023261100D1
:105664009347F4FF1397170193040500631607008B
:10567400EFF09FFB63180500B787FFFF3344F40086
:10568400239984008320C1000324810083244100E2
:105694001301010167800000130101FF232481002D
:1056A40003542501232611009347F4FF1397170190
:1056B40063180700EFF05FF7930700006314050019
:1056C4009357F4008320C10003248100138507004D
:1056D400130101016780000083572501130101FFB5
:1056E4002324810093D7F70023229100232611005D
:1056F40023202101B307F0402390F50083572501AF
:10570400B78600009386F6FFB3F7F6002391F50001
:1057140093040500130405016380D704938765008F
:10572400239205001305E5FF1304E4FF0357240047
:1057340093872700239FE7FEE318A4FE239C05001C
:105744008320C10003248100832441000329010034
:105754001301010167800000035725011389050027
:1057640033F7E7006318F702EFF01FEC6304050258
:1057740013076900231209009387C4FF1304E4FF8D
:105784008356240013072700231FD7FEE39887FEC0
:105794006FF01FFB930749009305A9019387270026
:1057A400239F07FEE39CF5FE8320C10003248100B0
:1057B40083244100032901001301010167800000D3
:1057C40083572501130101FB2324810493C7F7FFA9
:1057D400232291042326110413971701930405002F
:1057E4001384050063160700EFF01FE46312050835
:1057F4008357240193C7F7FF139717016304070620
:105804009305810013850400EFF01FED9305410219
:1058140013050400EFF05FEC83558100035541024A
:10582400630CB5049307A100130761021306010278
:1058340083D6070093872700639A060883560700D8
:105844001307270063940608E394C7FE13050000BA
:105854008320C1040324810483244104130101052A
:105864006780000013050400EFF01FDCE30A05F86D
:105874001305E0FF6FF0DFFD1307A100930761023A
:105884009387270013072700133515000356E7FFF6
:1058940083D6E7FF3305A040137525001305F5FFF4
:1058A4009305C103631ED600E382B7FA93872700EA
:1058B400130727000356E7FF83D6E7FFE306D6FE68
:1058C400E3E8C6F83305A0406FF09FF81305100015
:1058D400E38005F81305F0FF6FF09FF7130101FF54
:1058E40023261100EFF05FD48320C1001335150087
:1058F4001301010167800000130101FF23248100CB
:10590400232021012326110023229100138905005D
:105914001304050063C2050A9307F000138605000B
:1059240013054500930684019305F00063D427030F
:10593400930705009387270003D70700239FE7FEFB
:10594400E39AD7FE231C0400130606FFE3C2C5FE38
:105954001379F9009307700063D827039307840130
:10596400930524001307000083D607009387E7FFFD
:10597400139686003367C7002391E70013D7860088
:10598400E394B7FE130989FF630A09001309F9FFB9
:1059940013050400EFF0DFB8E31A09FE8320C10009
:1059A400032481008324410003290100130500001E
:1059B4001301010167800000930710FFB304B04096
:1059C40063D4F50C93058501130900009306450083
:1059D4001306F00003578401938705003369E90037
:1059E4009387E7FF03D707002391E700E39AD7FEE5
:1059F40023120400938404FFE34E96FC9307700083
:105A040063D6970413190901135909418347840183
:105A14009305A401130700003369F9001319090160
:105A24001359090183D706009386260013D68700ED
:105A34003367C70093978700239FE6FE13970701F8
:105A440013570701E390B6FE938484FF6380040236
:105A5400835784019384F4FF1305040093F717001C
:105A640033E92701EFF05FA5E39404FE8320C1002E
:105A740003248100333520018324410003290100DC
:105A84001301010167800000930790FF63C6F500CE
:105A9400130900006FF0DFFB1309000093064400B4
:105AA4006FF0DFF683574500130101FF23229100B5
:105AB40023261100232481002320210193040500BF
:105AC400639C070C03576500130400009317070138
:105AD40093D7074163C4070A9306A5011306000A76
:105AE40063180702938764006F00800003D70700E0
:105AF40093872700239EE7FEE39AF6FE239C040087
:105B040013040401630CC40603D76400E30C07FC0C
:105B1400937707F063900704138584019385240029
:105B2400130700009307050083D607009387E7FF58
:105B3400139686003367C7002391E70013D78600C6
:105B4400E394F5FE03D7640013048400937707F00D
:105B5400E38807FC1309000A6F00400113041400D2
:105B6400EFF01F9C634C890003D7640013170701EF
:105B74001357074113850400E35207FE130504007D
:105B84008320C100032481008324410003290100F0
:105B9400130101016780000013F707F013040000EC
:105BA400631007041309F0F66F0040011304F4FFB7
:105BB400EFF09F90E30424FD83D744001385040091
:105BC400E39607FE130504008320C100032481002B
:105BD40083244100032901001301010167800000AF
:105BE400930645009305A501130700006F0080008C
:105BF40083D7060013D687003367C70093978700BF
:105C04002390E60013970701938626001357070194
:105C1400E390B6FE83D74400130480FF6FF09FF82F
:105C2400130101FE232C8100232A91002328210142
:105C34002326310123244101232251011389060023
:105C440093840700232E1100130405009389050093
:105C5400130A0600930A0700EFF0DFE49307000934
:105C64003309A94063DEA706B78700009387E7FFDF
:105C740063DA272163840A1E03A5440083A7040072
:105C8400638AA70E1387A40193874403130727008D
:105C9400231F07FEE31CF7FE930780036300F5361A
:105CA40063D2A70693070004630AF52E930710072F
:105CB400631CF530B78700409387F7FF1307A000F4
:105CC40023AAF400B787FFFF23A4E400239CF40075
:105CD40023A6E4009307A000378700006F000006A6
:105CE4006352091E930700F7635AF91A93072400B5
:105CF4001304A40193872700239F07FEE39C87FED8
:105D04006F008013930780016304F5269307500303
:105D1400631CF52A37170000B707000493066000D8
:105D24009387F77F1307078023AAF40023A4D400E2
:105D3400239CE40023A6D400930760009387870084
:105D440093971700B387F4002395E70023A0A400DA
:105D540063422003930700096308F51E83578401F7
:105D64001305040093F71700B3E9F900EFF0CFF43B
:105D740003A5440083A5840083D744011308F008D5
:105D8400139615003306C40003570600B376F700D4
:105D9400634AA8021308B0006346B802130706005A
:105DA40093058401835727006384070093E6160054
:105DB4002311070013072700E396E5FE03570600A7
:105DC40083D7440193C7F7FFB3F7E7002310F60026
:105DD40083D7640133F7D700630007046382D712C3
:105DE40013862403130784019384C40193060000DB
:105DF40083570600835507001307E7FF1306E6FFE2
:105E0400B387B700B387D7002311F70093D70701EF
:105E140093F61700E31E96FC635620118357440043
:105E2400639C070AB7870000231C04009387E7FFDD
:105E340063C82703231124018320C10103248101A2
:105E440083244101032901018329C100032A81001C
:105E5400832A41001301010267800000231C04000F
:105E6400B787FFFF93C7F7FF2311F400930744009C
:105E7400130484012390070093872700E31CF4FE96
:105E84006FF09FFB930724001304A401938727005A
:105E9400239F07FEE39C87FE6FF01FFA930509001A
:105EA40013050400EFF05FA56304050093091000D7
:105EB400638A0A0A03A5440083A70400E394A7DCC9
:105EC4006FF05FE9E3800AF603A5440083A70400AA
:105ED400E31AF5DA6FF0DFE713050400EFF0CFDD26
:105EE400B787000013091900231C04009387E7FFF8
:105EF400E3C827F7E35009F4231104006FF0DFF33C
:105F0400639A090E83A7C40003D7840193971700EB
:105F1400B307F40083D70700B3F7E700E39207EC75
:105F2400E34E20EF930700096306F5001305040010
:105F3400EFF00FDF83574400E39007FA231C0400BB
:105F4400E34C09FA6FF01FEF03A6840083D74401E2
:105F5400131616003306C40003570600B3F6E70011
:105F64006FF05FE6231C0400231104006FF0DFECE4
:105F7400B70780009387F70F1307400023AAF400A4
:105F84009307001023A4E400239CF40023A6E40058
:105F940093074000130700106FF05FDA9307700057
:105FA40023A4F400B70701809387F7FF23AAF40022
:105FB40093071000239CF4009307600023A6F400C9
:105FC400130710006FF09FD79307C00023A4F400B9
:105FD400B70701809387F7FF23AAF4009307100003
:105FE400239CF4009307B00023A6F40013071000C9
:105FF4006FF0DFD4E3060ADE6FF01FE2B70780001C
:106004009387F70F1307600023AAF4009307001087
:1060140023A4E400239CF40023A6E4009307600077
:10602400130700106FF09FD1130101FD232E3101DE
:10603400835925002322910293840500232611020B
:106044002324810223202103232C41011309060068
:10605400232A51012328610123267101232481016C
:10606400232291012320A101130A0500EFF09FA32D
:1060740003D42400B389A94013850400EFF09FA240
:10608400930A49033304A4401307E90493870A00DD
:1060940093872700239F07FEE39CE7FE634A3409A6
:1060A400930B4A00138B44009389F9FF930CAA01C4
:1060B400138C240013070B0093870B00938727008E
:1060C4001307270003D6E7FF8356E7FF631AD60AB0
:1060D400E39697FF93068A01138784011306000051
:1060E4008357070083D506001307E7FFB387C7402C
:1060F400B387B7402311F70093D707019386E6FFD0
:1061040013F61700E31EECFC130D100013850A00B0
:10611400EFF00FC18357C9041304F4FF138504007F
:10612400336DFD002316A905EFF08FBFE31434F996
:1061340093060400032481028320C1028329C10140
:10614400032A8101832A4101032B0101832BC1000E
:10615400032C8100832C4100032D010093070900C7
:10616400138504000329010283244102130700005C
:106174001306000093050000130101036FF05FAAEA
:10618400130D0000E3E4C6F86FF0DFF403570500D5
:10619400835725006306070037870000B3E7E7004D
:1061A4002399F50003572500B78700009387F7FF6D
:1061B4006304F702930765009385050113058501C0
:1061C4009387270003D7E7FF9385E5FF2391E50035
:1061D400E398A7FE67800000930765001305A501F7
:1061E40003D7070093872700631A0702E39AA7FEE1
:1061F400138725019387050093872700239F07FEB4
:10620400E31CF7FE83D72501378700001307F7FF48
:10621400B3E7E7002399F5006780000013870501C1
:106224009387050093872700239F07FEE31CF7FE4F
:10623400B7C7FF7F23A8F50067800000130101F7AB
:10624400232A5107835A2501B78700009387F7FF54
:10625400232481082322910823202109232E310796
:106264002328610723261108232C410723267107BD
:10627400232481072322910733FB5701930405004C
:106284001389050013040600938906006318FB0AAA
:10629400EFF08FB9631C0520035A2901B3774B0132
:1062A4006394672313050900EFF00FB86314050A1C
:1062B40013850400EFF08FE2631E0520B78700000A
:1062C4009387F7FF33FA4701131A0A01135A0A0195
:1062D4006316FA2C13050900EFF04FE06312053240
:1062E40083D72401B377FA0063844721138504001C
:1062F4009305C100EFF04FBE130509009305810219
:10630400EFF08FBD8354E1000359A102639A04089E
:1063140093070101930641026380D72C93872700DA
:1063240003D7E7FFE30A07FE1305C100EFF08FF779
:10633400B304A0400357A1026F00C00603DA25018D
:1063440033F74701E314F7FA13850500EFF0CFADF7
:10635400E30605F613074901130929008357E9FFEA
:1063640013042400231FF4FEE318E9FE8320C1086C
:106374000324810883244108032901088329C107D0
:10638400032A8107832A4107032B0107832BC106B4
:10639400032C8106832C4106130101096780000048
:1063A40013070900130B09009307C10293060104A4
:1063B40063120702638CF6229387270003D7E7FF53
:1063C400E30A07FE13058102EFF0CFED0357A102A4
:1063D400330BA94083578102938A8903239BE902E3
:1063E400239AF9021387E90493870A00239007008C
:1063F40093872700E31CF7FE938BC904130A00005C
:1064040013094102930C0101130C610403550900A3
:106414001309E9FF6312051403D7C90493870B001A
:10642400336AEA009387E7FF03D707002391E70065
:10643400E39A57FF239C0902E31A99FD1387490342
:1064440093078102930621040356070093872700CC
:1064540013072700239FC7FEE398F6FEB7C6FFFF86
:10646400B38464019386260093050A001305810210
:106474009387090013070004B386D40013060000B1
:10648400EFF00FFA035781028357C100930504000C
:1064940013058102B387E740B337F000B307F04038
:1064A4002314F102EFF09FCE6FF05FEC13874401E9
:1064B4009384240083D7E4FF13042400231FF4FEF1
:1064C400E398E4FE6FF09FEA13850400EFF00FC138
:1064D4006308050C97F500009385C557130509005B
:1064E400EFF00FAE63000514035A29016FF01FDDAE
:1064F40013850400EFF08FBE63180500130509002F
:10650400EFF0CFBDE30405DE13850400EFF0CF9870
:106514009304050013050900EFF00F983385A44098
:106524003335A0001315F5002319A4001307240123
:106534009307040093872700239F07FEE39CE7FE4D
:1065440083572401378700001307F7FFB3E7E700F9
:106554002319F4006FF09FE11306410493058102AF
:10656400EFF00F8313860B00930500001307C1059A
:1065740003550600835707001306E6FF1307E7FFDA
:10658400B387A700B387B7002311F60093D7070199
:1065940093F51700E31E87FD6FF01FE883DA2401EB
:1065A400B78700009387F7FFB3FA5701939A0A015C
:1065B40093DA0A01E39CFAD213850400EFF00FB2D8
:1065C400E31405F48357290193C7F7FF13971701C1
:1065D400E31E07D06FF09FF29307440113042400D5
:1065E400231F04FEE39C87FE6FF05FD893074401EA
:1065F40013042400231F04FEE31CF4FE6FF01FD7D2
:1066040097F500009385054513850400EFF04F9B33
:10661400630A050083D72401B377FA00E38E47F9B0
:106624006FF05FFA130704019307040093872700B0
:10663400239F07FEE39CE7FEB7C7FF7F2328F400F0
:106644006FF0DFD283572501130101F52324810A5A
:1066540093C7F7FF2322910A2320210B23286109E2
:106664002326110A232E3109232C4109232A5109F7
:106674002326710923248109232291092320A109B6
:10668400232EB107139717019304050013890500FE
:1066940013040600138B060063160700EFE0DFF80F
:1066A400631005388357290193C7F7FF1397170120
:1066B400630E070897F500009385C5391385040018
:1066C400EFF00F906304051083D9240103572901C7
:1066D400B78700009387F7FFB3F9370133FAE70070
:1066E400639AF90813850400EFF04F9F630A0510BD
:1066F40063183A0113050900EFF04F9E6312050E6B
:106704009307440113042400231F04FEE31CF4FE36
:106714008320C10A0324810A8324410A0329010A2C
:106724008329C109032A8109832A4109032B010909
:10673400832BC108032C8108832C4108032D0108F5
:10674400832DC1071301010B6780000013050900A5
:10675400EFE09FEDE30005F6130749011309290053
:106764008357E9FF13042400231FF4FEE318E9FE12
:106774006FF01FFA6308FA08138504009305C1013A
:10678400EFE09FF59305810313050900EFE0DFF4C3
:10679400835BA1038354E10163940B0C9307C1034E
:1067A400930B01056386FB349387270083D6E7FFA9
:1067B400E38A06FE13058103EFF0CFAEB307A040D2
:1067C4002326F1000356E1016F00000A97F500004B
:1067D4009385452813050900EFE09FFEE31605EEB7
:1067E400130704019307040093872700239F07FEE0
:1067F400E39CE7FEB7C7FF7F2328F4006FF05FF147
:10680400E31C3AF713050900EFF04F8DE30605F694
:1068140013850400EFE05FE8930405001305090005
:10682400EFE09FE7B387A440B337F0009397F700F6
:106834002319F40013072401930704009387270006
:10684400239F07FEE39CE7FE83572401378700005C
:106854001307F7FFB3E7E7002319F4006FF05FEBCA
:106864002326710113860400232491009307010257
:1068740093064103631206026386F6289387270072
:1068840003D7E7FFE30A07FE1305C101EFF08FA169
:10689400B387A4402324F10003278103130D8B0342
:1068A40093070D00232AEB029304EB04938727003C
:1068B400239F07FEE39CF4FE13058103EFE0DFBF93
:1068C400035C2102B7090100930B0105131A0C01A3
:1068D400330A8A41930AA1039389F9FF930CE106D1
:1068E400130961050355C1038357E103938D09001F
:1068F400131505013305F5006368AA0033558503B4
:10690400931D050193DD0D01130641059305C10196
:1069140013850D00EFE0DFC71306C103930781055C
:10692400938727001306260003D5E7FF8355E6FF68
:106934006316B510E39697FF130500009305C1068F
:1069440013860B008357060003D805001306E6FFE1
:10695400B387A740B38707412311F60093D70701F4
:106964009385E5FF13F51700E31E56FD2310BD01C3
:106974009307C1039387270003D60700239FC7FE0D
:10698400E39A77FF23180104130D2D00E39CA4F56B
:10699400930500009307C1039306210593872700FD
:1069A40003D7E7FFB3E5E500E39AD7FEB335B000BC
:1069B40013074B03930781030356070093872700AC
:1069C40013072700239FC7FEE398F6FE8327C10021
:1069D40003278100B74600009386F6FFB38BE74098
:1069E4001305810393070B0013070004B386DB0030
:1069F40013060000EFF0CFA2035781038357C101B0
:106A04009305040013058103B387E740B337F0000F
:106A1400B307F040231CF102EFF04FF76FF05FCFA4
:106A2400138744019384240083D7E4FF13042400D0
:106A3400231FF4FEE398E4FE6FF09FCDE3FEA5EE82
:106A44009387FDFF9398070193D80801130500006D
:106A5400930541031306C1068357060003D80500B6
:106A64001306E6FFB387A740B38707412311F60057
:106A740093D707019385E5FF13F51700E31E26FD61
:106A84001306C10393078105938727001306260085
:106A940003D5E7FF8355E6FF6318B500E39697FF38
:106AA400938D08006FF05FE9E3FCA5FE938DEDFF85
:106AB400939D0D0193DD0D01130500009305410322
:106AC4001306C1068357060003D805001306E6FF24
:106AD400B387A740B38707412311F60093D7070173
