:02000004F90001
:100000009721000093810198138101021385C1801B
:100010009385C1801386C18163FCC50083220500DE
:1000200023A055001305450093854500E3E8C5FE70
:100030001385C181938501826378B5002320050073
:1000400013054500E36CB5FEEF000001EF00407FB3
:080050006F0000006780000052
:10005800130101FF23248100232021011384C1807F
:100068001389C18033098940232611002322910076
:1000780013592940630E09009304000083270400E4
:100088009384140013044400E7800700E31899FEE2
:100098001384C1801389C1803309894013592940C9
:1000A800630E09009304000083270400938414005E
:1000B80013044400E7800700E31899FE8320C10079
:1000C8000324810083244100032901001301010155
:1000D80067800000130101FF2326110023248100FB
:1000E800232291002320210113090500138505000F
:1000F80013040600B7450F0093850524EF00D07D53
:10010800B7C70000938787FF3304F40083240400F3
:1001180093050900EF0090793305950083270400C3
:10012800B307F540E3DC07FE8320C1000324810008
:1001380083244100032901001301010167800000A5
:1001480083A705002324F50283A745002326F5028B
:1001580083A785002328F50283A7C5002328F50473
:1001680083A70501232AF50483A74501232CF50459
:10017800678000000325050067800000638205048E
:1001880093071000638EF504130101FF2326110065
:100198002324810023229100232021019384050038
:1001A80013090500130510001304100063EE840002
:1001B80093050900EF00906F130414006FF01FFF00
:1001C80013051000678000008320C100032481000C
:1001D8008324410003290100130101016780000005
:1001E80067800000130101FF232611001317550033
:1001F8003307A74093172700B387A7001395370045
:100208003706B0F8B725A107EFF0DFEC8320C1006F
:100218001301010167800000130101FD232611026B
:10022800930730002324F100B7F7010093870740B4
:100238002326F100930700042328F1009307000AFE
:10024800232AF100232CF10093070014232EF10038
:1002580093058100376501F8EFF09FEE8320C10216
:10026800130101036780000083A7C5002324F5005C
:1002780083A705009387F7FF03A745001317870097
:10028800B3E7E70003A7850013170701B3E7E70003
:100298002326F50067800000130101FF23261100C3
:1002A8002324810023229100232021011309050022
:1002B8001385050013040600B7450F009385052430
:1002C800EF009061B7C70000938787FF3304F400FD
:1002D8008324040093050900EF00505D3305950061
:1002E80083270400B307F540E3DC07FE8320C10041
:1002F8000324810083244100032901001301010123
:1003080067800000130101FE232E1100930780006F
:100318002320F100232201002324010093079008E1
:100328002326F10093050100370501F8EFF0DFF30C
:100338008320C101130101026780000083A7050023
:100348002324F50283A745002326F50283A7850009
:100358002328F50283A7C5002328F50483A70501F0
:10036800232AF50483A74501232CF50467800000A0
:10037800032505041375150067800000130705049D
:10038800930700212320F5048327070093F707012B
:10039800E39C07FE67800000130101FF232611007C
:1003A800232481001304050013050400EFF05FFC0B
:1003B800E31C05FE8320C100032481001301010111
:1003C80067800000130101FF232611001307004274
:1003D8002320E504EFF05FFC8320C1001301010135
:1003E800678000008327450093F70710E39C07FE0A
:1003F80067800000130101FF232611001307103046
:100408002322E500EFF01FFE8320C1001301010144
:10041800678000000325C5001375F50F1335150017
:1004280067800000130101FE232E1100232C810098
:10043800232A910023282101232631012324410165
:100448002322510193040500138A0500930A06002C
:100458009389060013090700EFF05FF237140000D4
:10046800130404B0B3678A0023A0F40013850400C2
:10047800EFF05FF833E48A0023A0840013850400BA
:10048800EFF05FF79307100063FE2703138A040059
:10049800130400009307F9FF6376F402B387890019
:1004A80083C7070037170000130707B0B3E7E70053
:1004B8002320FA0013850400EFF0DFF3130414007F
:1004C8006FF05FFD1309F9FF33892901834709009C
:1004D80037170000130707B0B3E7E70023A0F400BD
:1004E80013850400EFF01FF113850400EFF09FED72
:1004F8008320C101032481018324410103290101CF
:100508008329C100032A8100832A410013010102C3
:1005180067800000130101FD2326110293073000B4
:100528002324F100B7F701009387F73F2326F10052
:100538009307F0072328F1009307F027232AF100F7
:10054800232CF100232EF10093058100376501F873
:10055800EFF0DFDE8320C102130101036780000092
:10056800130101FE232E1100232C8100232A910060
:1005780023282101232631019304050093890500CE
:10058800376501F8EFF09FDF376901F8371400008D
:10059800930704B22320F900376501F8EFF09FE5CF
:1005A800376501F8EFF01FE793D78400130404B010
:1005B800B3E787002320F900376501F8EFF09FE3E0
:1005C800376501F8EFF01FE593F4F40FB3E4840006
:1005D80023209900376501F8EFF0DFE1376501F86E
:1005E800EFF05FE333E4890023208900376501F8E1
:1005F800EFF05FE0376501F8EFF0DFE1376501F80C
:10060800EFF05FDC8320C1010324810183244101D1
:10061800032901018329C100130101026780000039
:10062800130101FF232611002324810093055000A4
:10063800373400001305B40EEFF09FF29305C000A5
:100648001305B40EEFF0DFF19305F00F1305A400C6
:10065800EFF01FF19305F00F1305B400EFF05FF012
:10066800930550001305B40EEFF09FEF930590002B
:100678001305B40EEFF0DFEE8320C10003248100E0
:100688001301010167800000130101FF23261100F7
:100698009305600013054016EFF09FEC9305800367
:1006A80013055016EFF0DFEB930560001305601695
:1006B800EFF01FEB9305700913057016EFF05FEA72
:1006C8009305400013058016EFF09FE99305000A93
:1006D80013059016EFF0DFE8930540001305A01608
:1006E800EFF01FE89305F00F1305B016EFF05FE782
:1006F800930500001305C016EFF09FE6930500066A
:100708001305D016EFF0DFE5930500001305E0169A
:10071800EFF01FE5930500061305F016EFF05FE410
:100728008320C1001301010167800000130101FF4C
:10073800232611009305000013050010EFF05FE277
:10074800EFF01FEE9305100013054011EFF05FE185
:100758009305000013058012EFF09FE093058001D8
:100768001305A012EFF0DFDF930500001305B012A8
:10077800EFF01FDF9305400013050016EFF05FDE72
:100788009305900513051016EFF09FDD9305D00033
:1007980013052016EFF0DFDC9305800713053016EC
:1007A800EFF01FDCEFF05FEE930540001305A01596
:1007B800EFF01FDB930540051305B015EFF05FDA86
:1007C8009305000013052017EFF09FD9930510003B
:1007D80013050010EFF0DFD88320C10013010101D9
:1007E80067800000130101FF2326110023248100E4
:1007F80023229100B75701F81307100023A4E7003C
:10080800B75401F89307100023A2F4003706B0F894
:10081800B725A107378401001305046AEFF0DFA7A5
:1008280023A204003706B0F8B725A1071305046A08
:10083800EFF09FA66FF0DFFC130101FE232E1100DD
:10084800B75701F81307100023A4E700EFF09FAB98
:10085800EFF05FCC930740002306F1001307100068
:100868009306C100130640009305000E376501F892
:10087800EFF05FBBEFF05F9AEFF05FEBEFF09FF602
:100888006F0000000325050413751500678000003C
:1008980013070504930700212320F5048327070085
:1008A80093F70701E39C07FE67800000130101FF2F
:1008B80023261100232481001304050013050400D6
:1008C800EFF05FFCE31C05FE8320C10003248100D8
:1008D8001301010167800000130101FF23261100A5
:1008E800130700422320E504EFF05FFC8320C100DA
:1008F80013010101678000008327450093F7071063
:10090800E39C07FE67800000130101FF2326110006
:10091800130710302322E500EFF01FFE8320C100EB
:100928001301010167800000032585001375F50F89
:1009380067800000130101FE232E1100232C810083
:10094800232A91002328210123263101930405003D
:1009580093890500376501F8EFF09FF3376901F8CF
:1009680037140000930704B22320F900376501F813
:10097800EFF09FF993D78400130404B0B3E787001E
:100988002320F900376501F8EFF01FF893F4F40F0E
:10099800B3E4840023209900376501F8EFF0DFF60F
:1009A80033E4890023208900376501F8EFF0DFF58B
:1009B800376501F8EFF05FF28320C101032481015C
:1009C80083244101032901018329C1001301010284
:1009D80067800000130101FE232E1100232C8100E3
:1009E800232A91002328210123263101930405009D
:1009F800376501F8EFF0DFE9376901F837140000CF
:100A0800930704B22320F900376501F8EFF0DFEF10
:100A180093D78400930904B0B3E737012320F90082
:100A2800376501F8EFF05FEE93F4F40FB3E43401A7
:100A380023209900376501F8EFF01FED376501F8BD
:100A4800EFF09FE9376501F8EFF09FE4930714B2E0
:100A58002320F900376501F8EFF01FEB1304F4BF0A
:100A680023208900376501F8EFF01FEA376501F8A0
:100A7800EFF09FEB1374F50F376501F8EFF0DFE542
:100A8800130504008320C10103248101832441014B
:100A9800032901018329C1001301010267800000B5
:100AA800130101FF23261100232481009305500020
:100AB800373400001305B40EEFF0DFE79305C000EC
:100AC8001305B40EEFF01FE79305F00F1305A4000C
:100AD800EFF05FE69305F00F1305B400EFF09FE524
:100AE800930550001305B40EEFF0DFE49305900072
:100AF8001305B40EEFF01FE48320C1000324810026
:100B08001301010167800000130101FF2326110072
:100B180023248100232291009304050013840500F7
:100B2800935585001305C016EFF0DFE093F5F40F39
:100B38001305D016EFF01FE0935584001305E01657
:100B4800EFF05FDF9375F40F1305F016EFF09FDEFB
:100B58008320C10003248100832441001301010183
:100B680067800000130101FE232E1100232C810051
:100B7800232A910023282101232631019309050006
:100B88001389050093040600138406009355850015
:100B980013054016EFF01FDA93F5F90F13055016F9
:100BA800EFF05FD99355890013056016EFF09FD8D1
:100BB8009375F90F13057016EFF0DFD793D58400FE
:100BC80013058016EFF01FD793F5F40F1305901651
:100BD800EFF05FD6935584001305A016EFF09FD56C
:100BE8009375F40F1305B016EFF0DFD48320C1011D
:100BF8000324810183244101032901018329C100C0
:100C08001301010267800000130101FF2326110070
:100C180023248100232291009304050013840500F6
:100C28009355850013054016EFF0DFD093F5F40FC8
:100C380013055016EFF01FD0935584001305601666
:100C4800EFF05FCF9375F40F13057016EFF09FCE9A
:100C58008320C10003248100832441001301010182
:100C680067800000130101FF23261100232481005F
:100C780023229100930405001384050093558500F1
:100C880013058016EFF01FCB93F5F40F130590169C
:100C9800EFF05FCA935584001305A016EFF09FC9C3
:100CA8009375F40F1305B016EFF0DFC88320C10069
:100CB800032481008324410013010101678000009F
:100CC800130101FF2326110023248100138405004A
:100CD8009307200063F4A700130530009307200052
:100CE80063F48700130430009305050013054017CB
:100CF800EFF05FC49305040013055017EFF09FC38E
:100D08008320C100032481001301010167800000D2
:100D1800130101FF232611002324810023229100BF
:100D2800930405001384050093558500130540625C
:100D3800EFF05FC093F5F40F13055062EFF09FBF1B
:100D48009355840013056062EFF0DFBE9375F40FCE
:100D580013057062EFF01FBE8320C10003248100D9
:100D6800832441001301010167800000130101FE83
:100D7800232E1100232C8100232A910023282101EE
:100D88002326310113040500938905009304060006
:100D9800138906009305000013050060EFF09FB962
:100DA800630404001384090093050400130510600C
:100DB800EFF05FB89305090013850400EFF05FF5C5
:100DC8008320C101032481018324410103290101F6
:100DD8008329C1001301010267800000130101FF8C
:100DE80023261100232481001384050093050500A0
:100DF80013057015EFF01FB49355840093F5F500B3
:100E080013058015EFF01FB39375F40F13059015B4
:100E1800EFF05FB28320C1000324810013010101B8
:100E280067800000130101FF2326110093050000CD
:100E380013050010EFF01FB0EFF09FC693051000E8
:100E480013054011EFF01FAF930500001305801242
:100E5800EFF05FAE930580011305A012EFF09FAD90
:100E6800930500001305B012EFF0DFAC93054000C6
:100E780013050016EFF01FAC930590051305101627
:100E8800EFF05FAB9305D00013052016EFF09FAA93
:100E98009305800713053016EFF0DFA9B71500009A
:100EA8009386F599130600009385F5CC1305802ADF
:100EB800EFF05FCB9305804313050078EFF0DFC4B4
:100EC8009305100013050017EFF0DFA69305100037
:100ED80013051017EFF01FA6930500001305000077
:100EE800EFF01FDE9305A0001305C018EFF09FA4D4
:100EF8009305A0001305D018EFF0DFA39305500069
:100F080013051030EFF01FA39305100013053030C0
:100F1800EFF05FA29305300013054030EFF09FA17A
:100F28009305300013055030EFF0DFA09305000063
:100F380013056030EFF01FA0930590031305703080
:100F4800EFF05F9F9305A00013059030EFF09F9E90
:100F5800930510001305B030EFF0DF9D93050000F6
:100F68001305C030EFF01F9D930520071305D030FF
:100F7800EFF05F9C9305A00013059030EFF09F9B66
:100F8800930510001305B030EFF0DF9A93050000C9
:100F98001305C030EFF01F9A930520071305D030D2
:100FA800EFF05F999305100013050010EFF09F987C
:100FB800930500201305900BEFF05FE29305D00036
:100FC80013052016EFF01F979305800713053016B9
:100FD800EFF05F969305600013050016EFF09F95FC
:100FE8009305300E13051016EFF0DF9493054000BB
:100FF8001305A015EFF01F94930540051305B015D0
:10100800EFF05F939305000013052017EFF09F9210
:101018008320C1001301010167800000130101FC56
:10102800232011002322510023246100232671006C
:101038002328A100232AB100232CC100232ED1008C
:101048002320E1022322F102232401032326110392
:101058002328C103232AD103232CE103232EF103E0
:10106800EFF01F82832001008322410003238100C7
:101078008323C10003250101832541010326810142
:101088008326C10103270102832741020328810225
:101098008328C102032E0103832E4103032F8103FA
:1010A800832FC103130101047300203013060500C8
:1010B8001305000093F61500638406003305C50088
:1010C80093D5150013161600E39605FE67800000F9
:1010D8006340050663C605061386050093050500EB
:1010E8001305F0FF630C060293061000637AB6003E
:1010F8006358C0001316160093961600E36AB6FEEE
:101108001305000063E6C500B385C5403365D50007
:1011180093D6160013561600E39606FE6780000065
:1011280093820000EFF05FFB1385050067800200E3
:101138003305A04063D80500B305B0406FF0DFF970
:10114800B305B04093820000EFF01FF93305A040CB
:10115800678002009382000063CA0500634C0500A3
:10116800EFF09FF71385050067800200B305B040D4
:10117800E35805FE3305A040EFF01FF63305B040F5
:04118800678002007A
:0E118C00000000000000000000000000000055
:04000005F9000000FE
:00000001FF
